{
  "address": "0x5EDD0DCD5D7566D73364237B19b3C32416f66738",
  "abi": [
    {
      "inputs": [
        {
          "internalType": "contract IProxyRegistry",
          "name": "_proxyRegistry",
          "type": "address"
        }
      ],
      "stateMutability": "nonpayable",
      "type": "constructor"
    },
    {
      "anonymous": false,
      "inputs": [
        {
          "indexed": true,
          "internalType": "address",
          "name": "owner",
          "type": "address"
        },
        {
          "indexed": true,
          "internalType": "address",
          "name": "approved",
          "type": "address"
        },
        {
          "indexed": true,
          "internalType": "uint256",
          "name": "tokenId",
          "type": "uint256"
        }
      ],
      "name": "Approval",
      "type": "event"
    },
    {
      "anonymous": false,
      "inputs": [
        {
          "indexed": true,
          "internalType": "address",
          "name": "owner",
          "type": "address"
        },
        {
          "indexed": true,
          "internalType": "address",
          "name": "operator",
          "type": "address"
        },
        {
          "indexed": false,
          "internalType": "bool",
          "name": "approved",
          "type": "bool"
        }
      ],
      "name": "ApprovalForAll",
      "type": "event"
    },
    {
      "anonymous": false,
      "inputs": [
        {
          "indexed": true,
          "internalType": "bytes32",
          "name": "role",
          "type": "bytes32"
        },
        {
          "indexed": true,
          "internalType": "bytes32",
          "name": "previousAdminRole",
          "type": "bytes32"
        },
        {
          "indexed": true,
          "internalType": "bytes32",
          "name": "newAdminRole",
          "type": "bytes32"
        }
      ],
      "name": "RoleAdminChanged",
      "type": "event"
    },
    {
      "anonymous": false,
      "inputs": [
        {
          "indexed": true,
          "internalType": "bytes32",
          "name": "role",
          "type": "bytes32"
        },
        {
          "indexed": true,
          "internalType": "address",
          "name": "account",
          "type": "address"
        },
        {
          "indexed": true,
          "internalType": "address",
          "name": "sender",
          "type": "address"
        }
      ],
      "name": "RoleGranted",
      "type": "event"
    },
    {
      "anonymous": false,
      "inputs": [
        {
          "indexed": true,
          "internalType": "bytes32",
          "name": "role",
          "type": "bytes32"
        },
        {
          "indexed": true,
          "internalType": "address",
          "name": "account",
          "type": "address"
        },
        {
          "indexed": true,
          "internalType": "address",
          "name": "sender",
          "type": "address"
        }
      ],
      "name": "RoleRevoked",
      "type": "event"
    },
    {
      "anonymous": false,
      "inputs": [
        {
          "indexed": true,
          "internalType": "address",
          "name": "from",
          "type": "address"
        },
        {
          "indexed": true,
          "internalType": "address",
          "name": "to",
          "type": "address"
        },
        {
          "indexed": true,
          "internalType": "uint256",
          "name": "tokenId",
          "type": "uint256"
        }
      ],
      "name": "Transfer",
      "type": "event"
    },
    {
      "inputs": [],
      "name": "DEFAULT_ADMIN_ROLE",
      "outputs": [
        {
          "internalType": "bytes32",
          "name": "",
          "type": "bytes32"
        }
      ],
      "stateMutability": "view",
      "type": "function"
    },
    {
      "inputs": [],
      "name": "MINTER_ROLE",
      "outputs": [
        {
          "internalType": "bytes32",
          "name": "",
          "type": "bytes32"
        }
      ],
      "stateMutability": "view",
      "type": "function"
    },
    {
      "inputs": [
        {
          "internalType": "address",
          "name": "to",
          "type": "address"
        },
        {
          "internalType": "uint256",
          "name": "tokenId",
          "type": "uint256"
        }
      ],
      "name": "approve",
      "outputs": [],
      "stateMutability": "nonpayable",
      "type": "function"
    },
    {
      "inputs": [
        {
          "internalType": "address",
          "name": "owner",
          "type": "address"
        }
      ],
      "name": "balanceOf",
      "outputs": [
        {
          "internalType": "uint256",
          "name": "",
          "type": "uint256"
        }
      ],
      "stateMutability": "view",
      "type": "function"
    },
    {
      "inputs": [
        {
          "internalType": "uint256",
          "name": "",
          "type": "uint256"
        }
      ],
      "name": "creatorOf",
      "outputs": [
        {
          "internalType": "address",
          "name": "",
          "type": "address"
        }
      ],
      "stateMutability": "view",
      "type": "function"
    },
    {
      "inputs": [
        {
          "internalType": "uint256",
          "name": "tokenId",
          "type": "uint256"
        }
      ],
      "name": "getApproved",
      "outputs": [
        {
          "internalType": "address",
          "name": "",
          "type": "address"
        }
      ],
      "stateMutability": "view",
      "type": "function"
    },
    {
      "inputs": [
        {
          "internalType": "bytes32",
          "name": "role",
          "type": "bytes32"
        }
      ],
      "name": "getRoleAdmin",
      "outputs": [
        {
          "internalType": "bytes32",
          "name": "",
          "type": "bytes32"
        }
      ],
      "stateMutability": "view",
      "type": "function"
    },
    {
      "inputs": [
        {
          "internalType": "bytes32",
          "name": "role",
          "type": "bytes32"
        },
        {
          "internalType": "address",
          "name": "account",
          "type": "address"
        }
      ],
      "name": "grantRole",
      "outputs": [],
      "stateMutability": "nonpayable",
      "type": "function"
    },
    {
      "inputs": [
        {
          "internalType": "bytes32",
          "name": "role",
          "type": "bytes32"
        },
        {
          "internalType": "address",
          "name": "account",
          "type": "address"
        }
      ],
      "name": "hasRole",
      "outputs": [
        {
          "internalType": "bool",
          "name": "",
          "type": "bool"
        }
      ],
      "stateMutability": "view",
      "type": "function"
    },
    {
      "inputs": [
        {
          "internalType": "address",
          "name": "owner",
          "type": "address"
        },
        {
          "internalType": "address",
          "name": "operator",
          "type": "address"
        }
      ],
      "name": "isApprovedForAll",
      "outputs": [
        {
          "internalType": "bool",
          "name": "",
          "type": "bool"
        }
      ],
      "stateMutability": "view",
      "type": "function"
    },
    {
      "inputs": [
        {
          "internalType": "uint256",
          "name": "_tokenId",
          "type": "uint256"
        },
        {
          "internalType": "string",
          "name": "_tokenURI",
          "type": "string"
        }
      ],
      "name": "mint",
      "outputs": [],
      "stateMutability": "nonpayable",
      "type": "function"
    },
    {
      "inputs": [
        {
          "internalType": "address",
          "name": "_creator",
          "type": "address"
        },
        {
          "internalType": "address",
          "name": "_to",
          "type": "address"
        },
        {
          "internalType": "uint256",
          "name": "_tokenId",
          "type": "uint256"
        },
        {
          "internalType": "string",
          "name": "_tokenURI",
          "type": "string"
        }
      ],
      "name": "mintTo",
      "outputs": [],
      "stateMutability": "nonpayable",
      "type": "function"
    },
    {
      "inputs": [],
      "name": "name",
      "outputs": [
        {
          "internalType": "string",
          "name": "",
          "type": "string"
        }
      ],
      "stateMutability": "view",
      "type": "function"
    },
    {
      "inputs": [
        {
          "internalType": "uint256",
          "name": "tokenId",
          "type": "uint256"
        }
      ],
      "name": "ownerOf",
      "outputs": [
        {
          "internalType": "address",
          "name": "",
          "type": "address"
        }
      ],
      "stateMutability": "view",
      "type": "function"
    },
    {
      "inputs": [],
      "name": "proxyRegistry",
      "outputs": [
        {
          "internalType": "contract IProxyRegistry",
          "name": "",
          "type": "address"
        }
      ],
      "stateMutability": "view",
      "type": "function"
    },
    {
      "inputs": [
        {
          "internalType": "bytes32",
          "name": "role",
          "type": "bytes32"
        },
        {
          "internalType": "address",
          "name": "account",
          "type": "address"
        }
      ],
      "name": "renounceRole",
      "outputs": [],
      "stateMutability": "nonpayable",
      "type": "function"
    },
    {
      "inputs": [
        {
          "internalType": "bytes32",
          "name": "role",
          "type": "bytes32"
        },
        {
          "internalType": "address",
          "name": "account",
          "type": "address"
        }
      ],
      "name": "revokeRole",
      "outputs": [],
      "stateMutability": "nonpayable",
      "type": "function"
    },
    {
      "inputs": [
        {
          "internalType": "address",
          "name": "from",
          "type": "address"
        },
        {
          "internalType": "address",
          "name": "to",
          "type": "address"
        },
        {
          "internalType": "uint256",
          "name": "tokenId",
          "type": "uint256"
        }
      ],
      "name": "safeTransferFrom",
      "outputs": [],
      "stateMutability": "nonpayable",
      "type": "function"
    },
    {
      "inputs": [
        {
          "internalType": "address",
          "name": "from",
          "type": "address"
        },
        {
          "internalType": "address",
          "name": "to",
          "type": "address"
        },
        {
          "internalType": "uint256",
          "name": "tokenId",
          "type": "uint256"
        },
        {
          "internalType": "bytes",
          "name": "_data",
          "type": "bytes"
        }
      ],
      "name": "safeTransferFrom",
      "outputs": [],
      "stateMutability": "nonpayable",
      "type": "function"
    },
    {
      "inputs": [
        {
          "internalType": "address",
          "name": "operator",
          "type": "address"
        },
        {
          "internalType": "bool",
          "name": "approved",
          "type": "bool"
        }
      ],
      "name": "setApprovalForAll",
      "outputs": [],
      "stateMutability": "nonpayable",
      "type": "function"
    },
    {
      "inputs": [
        {
          "internalType": "bytes4",
          "name": "interfaceId",
          "type": "bytes4"
        }
      ],
      "name": "supportsInterface",
      "outputs": [
        {
          "internalType": "bool",
          "name": "",
          "type": "bool"
        }
      ],
      "stateMutability": "view",
      "type": "function"
    },
    {
      "inputs": [],
      "name": "symbol",
      "outputs": [
        {
          "internalType": "string",
          "name": "",
          "type": "string"
        }
      ],
      "stateMutability": "view",
      "type": "function"
    },
    {
      "inputs": [
        {
          "internalType": "uint256",
          "name": "tokenId",
          "type": "uint256"
        }
      ],
      "name": "tokenURI",
      "outputs": [
        {
          "internalType": "string",
          "name": "",
          "type": "string"
        }
      ],
      "stateMutability": "view",
      "type": "function"
    },
    {
      "inputs": [
        {
          "internalType": "address",
          "name": "from",
          "type": "address"
        },
        {
          "internalType": "address",
          "name": "to",
          "type": "address"
        },
        {
          "internalType": "uint256",
          "name": "tokenId",
          "type": "uint256"
        }
      ],
      "name": "transferFrom",
      "outputs": [],
      "stateMutability": "nonpayable",
      "type": "function"
    }
  ],
  "transactionHash": "0xf486b7840bdad7fa3476d4af8a2e959ec91a1b81fcf66dbaa678ea6ed5d77942",
  "args": [
    "0x9cD669E308A77529335b5279d3871765F1AfbDCb"
  ],
  "solcInputHash": "b3b0afc65ec9ec55274f57b701bf3c05",
  "bytecode": "0x60806040523480156200001157600080fd5b50604051620021ae380380620021ae833981016040819052620000349162000234565b604080518082018252601081526f4c656769742e4172742045524337323160801b602080830191825283518085019094526008845267131959da5d105c9d60c21b9084015281519192916200008c916000916200018e565b508051620000a29060019060208401906200018e565b50620000b491506000905033620000da565b600880546001600160a01b0319166001600160a01b0392909216919091179055620002a1565b620000e68282620000ea565b5050565b60008281526007602090815260408083206001600160a01b038516845290915290205460ff16620000e65760008281526007602090815260408083206001600160a01b03851684529091529020805460ff191660011790556200014a3390565b6001600160a01b0316816001600160a01b0316837f2f8788117e7eff1d82e926ec794901d17c78024a50270940304540a733656f0d60405160405180910390a45050565b8280546200019c9062000264565b90600052602060002090601f016020900481019282620001c057600085556200020b565b82601f10620001db57805160ff19168380011785556200020b565b828001600101855582156200020b579182015b828111156200020b578251825591602001919060010190620001ee565b50620002199291506200021d565b5090565b5b808211156200021957600081556001016200021e565b60006020828403121562000246578081fd5b81516001600160a01b03811681146200025d578182fd5b9392505050565b600181811c908216806200027957607f821691505b602082108114156200029b57634e487b7160e01b600052602260045260246000fd5b50919050565b611efd80620002b16000396000f3fe608060405234801561001057600080fd5b50600436106101585760003560e01c806377097fc8116100c3578063b88d4fde1161007c578063b88d4fde14610302578063c87b56dd14610315578063d539139314610328578063d547741f1461034f578063da4b62cb14610362578063e985e9c51461037557600080fd5b806377097fc8146102a657806391d14854146102b957806395d89b41146102cc578063a217fddf146102d4578063a22cb465146102dc578063b50cbd9f146102ef57600080fd5b80632f2ff15d116101155780632f2ff15d1461021e57806336568abe1461023157806342842e0e14610244578063589a1743146102575780636352211e1461028057806370a082311461029357600080fd5b806301ffc9a71461015d57806306fdde0314610185578063081812fc1461019a578063095ea7b3146101c557806323b872dd146101da578063248a9ca3146101ed575b600080fd5b61017061016b366004611aec565b610388565b60405190151581526020015b60405180910390f35b61018d6103a8565b60405161017c9190611c92565b6101ad6101a8366004611ab0565b61043a565b6040516001600160a01b03909116815260200161017c565b6101d86101d3366004611a85565b6104c7565b005b6101d86101e8366004611939565b6105dd565b6102106101fb366004611ab0565b60009081526007602052604090206001015490565b60405190815260200161017c565b6101d861022c366004611ac8565b61060e565b6101d861023f366004611ac8565b610634565b6101d8610252366004611939565b6106b2565b6101ad610265366004611ab0565b6009602052600090815260409020546001600160a01b031681565b6101ad61028e366004611ab0565b6106cd565b6102106102a13660046118e5565b610744565b6101d86102b4366004611b40565b6107cb565b6101706102c7366004611ac8565b6107d7565b61018d610802565b610210600081565b6101d86102ea366004611a54565b610811565b6008546101ad906001600160a01b031681565b6101d8610310366004611979565b6108d6565b61018d610323366004611ab0565b61090e565b6102107f9f2df0fed2c77648de5860a4cc508cd0818c85b8b8a1ab4ceeef8d981c8956a681565b6101d861035d366004611ac8565b610a85565b6101d86103703660046119f6565b610aab565b610170610383366004611901565b610b2d565b600061039382610bf8565b806103a257506103a282610c48565b92915050565b6060600080546103b790611ded565b80601f01602080910402602001604051908101604052809291908181526020018280546103e390611ded565b80156104305780601f1061040557610100808354040283529160200191610430565b820191906000526020600020905b81548152906001019060200180831161041357829003601f168201915b5050505050905090565b600061044582610c6d565b6104ab5760405162461bcd60e51b815260206004820152602c60248201527f4552433732313a20617070726f76656420717565727920666f72206e6f6e657860448201526b34b9ba32b73a103a37b5b2b760a11b60648201526084015b60405180910390fd5b506000908152600460205260409020546001600160a01b031690565b60006104d2826106cd565b9050806001600160a01b0316836001600160a01b031614156105405760405162461bcd60e51b815260206004820152602160248201527f4552433732313a20617070726f76616c20746f2063757272656e74206f776e656044820152603960f91b60648201526084016104a2565b336001600160a01b038216148061055c575061055c8133610b2d565b6105ce5760405162461bcd60e51b815260206004820152603860248201527f4552433732313a20617070726f76652063616c6c6572206973206e6f74206f7760448201527f6e6572206e6f7220617070726f76656420666f7220616c6c000000000000000060648201526084016104a2565b6105d88383610c8a565b505050565b6105e73382610cf8565b6106035760405162461bcd60e51b81526004016104a290611cf7565b6105d8838383610dba565b60008281526007602052604090206001015461062a8133610f5a565b6105d88383610fbe565b6001600160a01b03811633146106a45760405162461bcd60e51b815260206004820152602f60248201527f416363657373436f6e74726f6c3a2063616e206f6e6c792072656e6f756e636560448201526e103937b632b9903337b91039b2b63360891b60648201526084016104a2565b6106ae8282611044565b5050565b6105d8838383604051806020016040528060008152506108d6565b6000818152600260205260408120546001600160a01b0316806103a25760405162461bcd60e51b815260206004820152602960248201527f4552433732313a206f776e657220717565727920666f72206e6f6e657869737460448201526832b73a103a37b5b2b760b91b60648201526084016104a2565b60006001600160a01b0382166107af5760405162461bcd60e51b815260206004820152602a60248201527f4552433732313a2062616c616e636520717565727920666f7220746865207a65604482015269726f206164647265737360b01b60648201526084016104a2565b506001600160a01b031660009081526003602052604090205490565b6106ae333384846110ab565b60009182526007602090815260408084206001600160a01b0393909316845291905290205460ff1690565b6060600180546103b790611ded565b6001600160a01b03821633141561086a5760405162461bcd60e51b815260206004820152601960248201527f4552433732313a20617070726f766520746f2063616c6c65720000000000000060448201526064016104a2565b3360008181526005602090815260408083206001600160a01b03871680855290835292819020805460ff191686151590811790915590519081529192917f17307eab39ab6107e8899845ad3d59bd9653f200f220920489ca2b5937696c31910160405180910390a35050565b6108e03383610cf8565b6108fc5760405162461bcd60e51b81526004016104a290611cf7565b610908848484846110e6565b50505050565b606061091982610c6d565b61097f5760405162461bcd60e51b815260206004820152603160248201527f45524337323155524953746f726167653a2055524920717565727920666f72206044820152703737b732bc34b9ba32b73a103a37b5b2b760791b60648201526084016104a2565b6000828152600660205260408120805461099890611ded565b80601f01602080910402602001604051908101604052809291908181526020018280546109c490611ded565b8015610a115780601f106109e657610100808354040283529160200191610a11565b820191906000526020600020905b8154815290600101906020018083116109f457829003601f168201915b505050505090506000610a2f60408051602081019091526000815290565b9050805160001415610a42575092915050565b815115610a74578082604051602001610a5c929190611bb1565b60405160208183030381529060405292505050919050565b610a7d84611119565b949350505050565b600082815260076020526040902060010154610aa18133610f5a565b6105d88383611044565b610ad57f9f2df0fed2c77648de5860a4cc508cd0818c85b8b8a1ab4ceeef8d981c8956a6336107d7565b610b215760405162461bcd60e51b815260206004820152601a60248201527f5468652063616c6c6572206973206e6f742061206d696e74657200000000000060448201526064016104a2565b610908848484846110ab565b60085460405163c455279160e01b81526001600160a01b0384811660048301526000928482169291169063c45527919060240160206040518083038186803b158015610b7857600080fd5b505afa158015610b8c573d6000803e3d6000fd5b505050506040513d601f19601f82011682018060405250810190610bb09190611b24565b6001600160a01b03161415610bc7575060016103a2565b6001600160a01b0380841660009081526005602090815260408083209386168352929052205460ff165b9392505050565b60006001600160e01b031982166380ac58cd60e01b1480610c2957506001600160e01b03198216635b5e139f60e01b145b806103a257506301ffc9a760e01b6001600160e01b03198316146103a2565b60006001600160e01b03198216637965db0b60e01b14806103a257506103a282610bf8565b6000908152600260205260409020546001600160a01b0316151590565b600081815260046020526040902080546001600160a01b0319166001600160a01b0384169081179091558190610cbf826106cd565b6001600160a01b03167f8c5be1e5ebec7d5bd14f71427d1e84f3dd0314c0f7b2291e5b200ac8c7c3b92560405160405180910390a45050565b6000610d0382610c6d565b610d645760405162461bcd60e51b815260206004820152602c60248201527f4552433732313a206f70657261746f7220717565727920666f72206e6f6e657860448201526b34b9ba32b73a103a37b5b2b760a11b60648201526084016104a2565b6000610d6f836106cd565b9050806001600160a01b0316846001600160a01b03161480610daa5750836001600160a01b0316610d9f8461043a565b6001600160a01b0316145b80610a7d5750610a7d8185610b2d565b826001600160a01b0316610dcd826106cd565b6001600160a01b031614610e355760405162461bcd60e51b815260206004820152602960248201527f4552433732313a207472616e73666572206f6620746f6b656e2074686174206960448201526839903737ba1037bbb760b91b60648201526084016104a2565b6001600160a01b038216610e975760405162461bcd60e51b8152602060048201526024808201527f4552433732313a207472616e7366657220746f20746865207a65726f206164646044820152637265737360e01b60648201526084016104a2565b610ea2600082610c8a565b6001600160a01b0383166000908152600360205260408120805460019290610ecb908490611d93565b90915550506001600160a01b0382166000908152600360205260408120805460019290610ef9908490611d48565b909155505060008181526002602052604080822080546001600160a01b0319166001600160a01b0386811691821790925591518493918716917fddf252ad1be2c89b69c2b068fc378daa952ba7f163c4a11628f55a4df523b3ef91a4505050565b610f6482826107d7565b6106ae57610f7c816001600160a01b031660146111f0565b610f878360206111f0565b604051602001610f98929190611be0565b60408051601f198184030181529082905262461bcd60e51b82526104a291600401611c92565b610fc882826107d7565b6106ae5760008281526007602090815260408083206001600160a01b03851684529091529020805460ff191660011790556110003390565b6001600160a01b0316816001600160a01b0316837f2f8788117e7eff1d82e926ec794901d17c78024a50270940304540a733656f0d60405160405180910390a45050565b61104e82826107d7565b156106ae5760008281526007602090815260408083206001600160a01b0385168085529252808320805460ff1916905551339285917ff6391f5c32d9c69d2a47ea670b442974b53935d1edc7fd64eb21e047a839171b9190a45050565b600082815260096020526040902080546001600160a01b0319166001600160a01b0386161790556110dc83836113d2565b6109088282611505565b6110f1848484610dba565b6110fd84848484611590565b6109085760405162461bcd60e51b81526004016104a290611ca5565b606061112482610c6d565b6111885760405162461bcd60e51b815260206004820152602f60248201527f4552433732314d657461646174613a2055524920717565727920666f72206e6f60448201526e3732bc34b9ba32b73a103a37b5b2b760891b60648201526084016104a2565b600061119f60408051602081019091526000815290565b905060008151116111bf5760405180602001604052806000815250610bf1565b806111c98461169d565b6040516020016111da929190611bb1565b6040516020818303038152906040529392505050565b606060006111ff836002611d74565b61120a906002611d48565b67ffffffffffffffff81111561123057634e487b7160e01b600052604160045260246000fd5b6040519080825280601f01601f19166020018201604052801561125a576020820181803683370190505b509050600360fc1b8160008151811061128357634e487b7160e01b600052603260045260246000fd5b60200101906001600160f81b031916908160001a905350600f60fb1b816001815181106112c057634e487b7160e01b600052603260045260246000fd5b60200101906001600160f81b031916908160001a90535060006112e4846002611d74565b6112ef906001611d48565b90505b6001811115611383576f181899199a1a9b1b9c1cb0b131b232b360811b85600f166010811061133157634e487b7160e01b600052603260045260246000fd5b1a60f81b82828151811061135557634e487b7160e01b600052603260045260246000fd5b60200101906001600160f81b031916908160001a90535060049490941c9361137c81611dd6565b90506112f2565b508315610bf15760405162461bcd60e51b815260206004820181905260248201527f537472696e67733a20686578206c656e67746820696e73756666696369656e7460448201526064016104a2565b6001600160a01b0382166114285760405162461bcd60e51b815260206004820181905260248201527f4552433732313a206d696e7420746f20746865207a65726f206164647265737360448201526064016104a2565b61143181610c6d565b1561147e5760405162461bcd60e51b815260206004820152601c60248201527f4552433732313a20746f6b656e20616c7265616479206d696e7465640000000060448201526064016104a2565b6001600160a01b03821660009081526003602052604081208054600192906114a7908490611d48565b909155505060008181526002602052604080822080546001600160a01b0319166001600160a01b03861690811790915590518392907fddf252ad1be2c89b69c2b068fc378daa952ba7f163c4a11628f55a4df523b3ef908290a45050565b61150e82610c6d565b6115715760405162461bcd60e51b815260206004820152602e60248201527f45524337323155524953746f726167653a2055524920736574206f66206e6f6e60448201526d32bc34b9ba32b73a103a37b5b2b760911b60648201526084016104a2565b600082815260066020908152604090912082516105d8928401906117b7565b60006001600160a01b0384163b1561169257604051630a85bd0160e11b81526001600160a01b0385169063150b7a02906115d4903390899088908890600401611c55565b602060405180830381600087803b1580156115ee57600080fd5b505af192505050801561161e575060408051601f3d908101601f1916820190925261161b91810190611b08565b60015b611678573d80801561164c576040519150601f19603f3d011682016040523d82523d6000602084013e611651565b606091505b5080516116705760405162461bcd60e51b81526004016104a290611ca5565b805181602001fd5b6001600160e01b031916630a85bd0160e11b149050610a7d565b506001949350505050565b6060816116c15750506040805180820190915260018152600360fc1b602082015290565b8160005b81156116eb57806116d581611e28565b91506116e49050600a83611d60565b91506116c5565b60008167ffffffffffffffff81111561171457634e487b7160e01b600052604160045260246000fd5b6040519080825280601f01601f19166020018201604052801561173e576020820181803683370190505b5090505b8415610a7d57611753600183611d93565b9150611760600a86611e43565b61176b906030611d48565b60f81b81838151811061178e57634e487b7160e01b600052603260045260246000fd5b60200101906001600160f81b031916908160001a9053506117b0600a86611d60565b9450611742565b8280546117c390611ded565b90600052602060002090601f0160209004810192826117e5576000855561182b565b82601f106117fe57805160ff191683800117855561182b565b8280016001018555821561182b579182015b8281111561182b578251825591602001919060010190611810565b5061183792915061183b565b5090565b5b80821115611837576000815560010161183c565b600067ffffffffffffffff8084111561186b5761186b611e83565b604051601f8501601f19908116603f0116810190828211818310171561189357611893611e83565b816040528093508581528686860111156118ac57600080fd5b858560208301376000602087830101525050509392505050565b600082601f8301126118d6578081fd5b610bf183833560208501611850565b6000602082840312156118f6578081fd5b8135610bf181611e99565b60008060408385031215611913578081fd5b823561191e81611e99565b9150602083013561192e81611e99565b809150509250929050565b60008060006060848603121561194d578081fd5b833561195881611e99565b9250602084013561196881611e99565b929592945050506040919091013590565b6000806000806080858703121561198e578081fd5b843561199981611e99565b935060208501356119a981611e99565b925060408501359150606085013567ffffffffffffffff8111156119cb578182fd5b8501601f810187136119db578182fd5b6119ea87823560208401611850565b91505092959194509250565b60008060008060808587031215611a0b578384fd5b8435611a1681611e99565b93506020850135611a2681611e99565b925060408501359150606085013567ffffffffffffffff811115611a48578182fd5b6119ea878288016118c6565b60008060408385031215611a66578182fd5b8235611a7181611e99565b91506020830135801515811461192e578182fd5b60008060408385031215611a97578182fd5b8235611aa281611e99565b946020939093013593505050565b600060208284031215611ac1578081fd5b5035919050565b60008060408385031215611ada578182fd5b82359150602083013561192e81611e99565b600060208284031215611afd578081fd5b8135610bf181611eb1565b600060208284031215611b19578081fd5b8151610bf181611eb1565b600060208284031215611b35578081fd5b8151610bf181611e99565b60008060408385031215611b52578182fd5b82359150602083013567ffffffffffffffff811115611b6f578182fd5b611b7b858286016118c6565b9150509250929050565b60008151808452611b9d816020860160208601611daa565b601f01601f19169290920160200192915050565b60008351611bc3818460208801611daa565b835190830190611bd7818360208801611daa565b01949350505050565b7f416363657373436f6e74726f6c3a206163636f756e7420000000000000000000815260008351611c18816017850160208801611daa565b7001034b99036b4b9b9b4b733903937b6329607d1b6017918401918201528351611c49816028840160208801611daa565b01602801949350505050565b6001600160a01b0385811682528416602082015260408101839052608060608201819052600090611c8890830184611b85565b9695505050505050565b602081526000610bf16020830184611b85565b60208082526032908201527f4552433732313a207472616e7366657220746f206e6f6e20455243373231526560408201527131b2b4bb32b91034b6b83632b6b2b73a32b960711b606082015260800190565b60208082526031908201527f4552433732313a207472616e736665722063616c6c6572206973206e6f74206f6040820152701ddb995c881b9bdc88185c1c1c9bdd9959607a1b606082015260800190565b60008219821115611d5b57611d5b611e57565b500190565b600082611d6f57611d6f611e6d565b500490565b6000816000190483118215151615611d8e57611d8e611e57565b500290565b600082821015611da557611da5611e57565b500390565b60005b83811015611dc5578181015183820152602001611dad565b838111156109085750506000910152565b600081611de557611de5611e57565b506000190190565b600181811c90821680611e0157607f821691505b60208210811415611e2257634e487b7160e01b600052602260045260246000fd5b50919050565b6000600019821415611e3c57611e3c611e57565b5060010190565b600082611e5257611e52611e6d565b500690565b634e487b7160e01b600052601160045260246000fd5b634e487b7160e01b600052601260045260246000fd5b634e487b7160e01b600052604160045260246000fd5b6001600160a01b0381168114611eae57600080fd5b50565b6001600160e01b031981168114611eae57600080fdfea2646970667358221220510f0bb5b870a00cb90cdb5d74c3ed50a9c5d16012a12eb0fbb4a996c3066dd764736f6c63430008040033",
  "devdoc": {
    "kind": "dev",
    "methods": {
      "approve(address,uint256)": {
        "details": "See {IERC721-approve}."
      },
      "balanceOf(address)": {
        "details": "See {IERC721-balanceOf}."
      },
      "getApproved(uint256)": {
        "details": "See {IERC721-getApproved}."
      },
      "getRoleAdmin(bytes32)": {
        "details": "Returns the admin role that controls `role`. See {grantRole} and {revokeRole}. To change a role's admin, use {_setRoleAdmin}."
      },
      "grantRole(bytes32,address)": {
        "details": "Grants `role` to `account`. If `account` had not been already granted `role`, emits a {RoleGranted} event. Requirements: - the caller must have ``role``'s admin role."
      },
      "hasRole(bytes32,address)": {
        "details": "Returns `true` if `account` has been granted `role`."
      },
      "mintTo(address,address,uint256,string)": {
        "details": "Should be called only by a minter (i.e. Marketplace contract)"
      },
      "name()": {
        "details": "See {IERC721Metadata-name}."
      },
      "ownerOf(uint256)": {
        "details": "See {IERC721-ownerOf}."
      },
      "renounceRole(bytes32,address)": {
        "details": "Revokes `role` from the calling account. Roles are often managed via {grantRole} and {revokeRole}: this function's purpose is to provide a mechanism for accounts to lose their privileges if they are compromised (such as when a trusted device is misplaced). If the calling account had been granted `role`, emits a {RoleRevoked} event. Requirements: - the caller must be `account`."
      },
      "revokeRole(bytes32,address)": {
        "details": "Revokes `role` from `account`. If `account` had been granted `role`, emits a {RoleRevoked} event. Requirements: - the caller must have ``role``'s admin role."
      },
      "safeTransferFrom(address,address,uint256)": {
        "details": "See {IERC721-safeTransferFrom}."
      },
      "safeTransferFrom(address,address,uint256,bytes)": {
        "details": "See {IERC721-safeTransferFrom}."
      },
      "setApprovalForAll(address,bool)": {
        "details": "See {IERC721-setApprovalForAll}."
      },
      "supportsInterface(bytes4)": {
        "details": "ERC165 support"
      },
      "symbol()": {
        "details": "See {IERC721Metadata-symbol}."
      },
      "tokenURI(uint256)": {
        "details": "See {IERC721Metadata-tokenURI}."
      },
      "transferFrom(address,address,uint256)": {
        "details": "See {IERC721-transferFrom}."
      }
    },
    "title": "LegitArt NFT",
    "version": 1
  },
  "userdoc": {
    "kind": "user",
    "methods": {
      "isApprovedForAll(address,address)": {
        "notice": "Override isApprovedForAll to whitelist user's LegitArt proxy accounts to enable gas-less listings."
      },
      "mintTo(address,address,uint256,string)": {
        "notice": "Mint a new NFT"
      }
    },
    "version": 1
  },
  "storageLayout": {
    "storage": [
      {
        "astId": 1422,
        "contract": "contracts/LegitArtERC721.sol:LegitArtERC721",
        "label": "_name",
        "offset": 0,
        "slot": "0",
        "type": "t_string_storage"
      },
      {
        "astId": 1424,
        "contract": "contracts/LegitArtERC721.sol:LegitArtERC721",
        "label": "_symbol",
        "offset": 0,
        "slot": "1",
        "type": "t_string_storage"
      },
      {
        "astId": 1428,
        "contract": "contracts/LegitArtERC721.sol:LegitArtERC721",
        "label": "_owners",
        "offset": 0,
        "slot": "2",
        "type": "t_mapping(t_uint256,t_address)"
      },
      {
        "astId": 1432,
        "contract": "contracts/LegitArtERC721.sol:LegitArtERC721",
        "label": "_balances",
        "offset": 0,
        "slot": "3",
        "type": "t_mapping(t_address,t_uint256)"
      },
      {
        "astId": 1436,
        "contract": "contracts/LegitArtERC721.sol:LegitArtERC721",
        "label": "_tokenApprovals",
        "offset": 0,
        "slot": "4",
        "type": "t_mapping(t_uint256,t_address)"
      },
      {
        "astId": 1442,
        "contract": "contracts/LegitArtERC721.sol:LegitArtERC721",
        "label": "_operatorApprovals",
        "offset": 0,
        "slot": "5",
        "type": "t_mapping(t_address,t_mapping(t_address,t_bool))"
      },
      {
        "astId": 2359,
        "contract": "contracts/LegitArtERC721.sol:LegitArtERC721",
        "label": "_tokenURIs",
        "offset": 0,
        "slot": "6",
        "type": "t_mapping(t_uint256,t_string_storage)"
      },
      {
        "astId": 24,
        "contract": "contracts/LegitArtERC721.sol:LegitArtERC721",
        "label": "_roles",
        "offset": 0,
        "slot": "7",
        "type": "t_mapping(t_bytes32,t_struct(RoleData)19_storage)"
      },
      {
        "astId": 3658,
        "contract": "contracts/LegitArtERC721.sol:LegitArtERC721",
        "label": "proxyRegistry",
        "offset": 0,
        "slot": "8",
        "type": "t_contract(IProxyRegistry)5378"
      },
      {
        "astId": 3662,
        "contract": "contracts/LegitArtERC721.sol:LegitArtERC721",
        "label": "creatorOf",
        "offset": 0,
        "slot": "9",
        "type": "t_mapping(t_uint256,t_address)"
      }
    ],
    "types": {
      "t_address": {
        "encoding": "inplace",
        "label": "address",
        "numberOfBytes": "20"
      },
      "t_bool": {
        "encoding": "inplace",
        "label": "bool",
        "numberOfBytes": "1"
      },
      "t_bytes32": {
        "encoding": "inplace",
        "label": "bytes32",
        "numberOfBytes": "32"
      },
      "t_contract(IProxyRegistry)5378": {
        "encoding": "inplace",
        "label": "contract IProxyRegistry",
        "numberOfBytes": "20"
      },
      "t_mapping(t_address,t_bool)": {
        "encoding": "mapping",
        "key": "t_address",
        "label": "mapping(address => bool)",
        "numberOfBytes": "32",
        "value": "t_bool"
      },
      "t_mapping(t_address,t_mapping(t_address,t_bool))": {
        "encoding": "mapping",
        "key": "t_address",
        "label": "mapping(address => mapping(address => bool))",
        "numberOfBytes": "32",
        "value": "t_mapping(t_address,t_bool)"
      },
      "t_mapping(t_address,t_uint256)": {
        "encoding": "mapping",
        "key": "t_address",
        "label": "mapping(address => uint256)",
        "numberOfBytes": "32",
        "value": "t_uint256"
      },
      "t_mapping(t_bytes32,t_struct(RoleData)19_storage)": {
        "encoding": "mapping",
        "key": "t_bytes32",
        "label": "mapping(bytes32 => struct AccessControl.RoleData)",
        "numberOfBytes": "32",
        "value": "t_struct(RoleData)19_storage"
      },
      "t_mapping(t_uint256,t_address)": {
        "encoding": "mapping",
        "key": "t_uint256",
        "label": "mapping(uint256 => address)",
        "numberOfBytes": "32",
        "value": "t_address"
      },
      "t_mapping(t_uint256,t_string_storage)": {
        "encoding": "mapping",
        "key": "t_uint256",
        "label": "mapping(uint256 => string)",
        "numberOfBytes": "32",
        "value": "t_string_storage"
      },
      "t_string_storage": {
        "encoding": "bytes",
        "label": "string",
        "numberOfBytes": "32"
      },
      "t_struct(RoleData)19_storage": {
        "encoding": "inplace",
        "label": "struct AccessControl.RoleData",
        "members": [
          {
            "astId": 16,
            "contract": "contracts/LegitArtERC721.sol:LegitArtERC721",
            "label": "members",
            "offset": 0,
            "slot": "0",
            "type": "t_mapping(t_address,t_bool)"
          },
          {
            "astId": 18,
            "contract": "contracts/LegitArtERC721.sol:LegitArtERC721",
            "label": "adminRole",
            "offset": 0,
            "slot": "1",
            "type": "t_bytes32"
          }
        ],
        "numberOfBytes": "64"
      },
      "t_uint256": {
        "encoding": "inplace",
        "label": "uint256",
        "numberOfBytes": "32"
      }
    }
  }
}