{
  "address": "0x9cD669E308A77529335b5279d3871765F1AfbDCb",
  "abi": [
    {
      "inputs": [],
      "stateMutability": "nonpayable",
      "type": "constructor"
    },
    {
      "anonymous": false,
      "inputs": [
        {
          "indexed": true,
          "internalType": "address",
          "name": "previousOwner",
          "type": "address"
        },
        {
          "indexed": true,
          "internalType": "address",
          "name": "newOwner",
          "type": "address"
        }
      ],
      "name": "OwnershipTransferred",
      "type": "event"
    },
    {
      "inputs": [],
      "name": "DELAY_PERIOD",
      "outputs": [
        {
          "internalType": "uint256",
          "name": "",
          "type": "uint256"
        }
      ],
      "stateMutability": "view",
      "type": "function"
    },
    {
      "inputs": [
        {
          "internalType": "address",
          "name": "",
          "type": "address"
        }
      ],
      "name": "contracts",
      "outputs": [
        {
          "internalType": "bool",
          "name": "",
          "type": "bool"
        }
      ],
      "stateMutability": "view",
      "type": "function"
    },
    {
      "inputs": [],
      "name": "delegateProxyImplementation",
      "outputs": [
        {
          "internalType": "address",
          "name": "",
          "type": "address"
        }
      ],
      "stateMutability": "view",
      "type": "function"
    },
    {
      "inputs": [
        {
          "internalType": "address",
          "name": "addr",
          "type": "address"
        }
      ],
      "name": "endGrantAuthentication",
      "outputs": [],
      "stateMutability": "nonpayable",
      "type": "function"
    },
    {
      "inputs": [
        {
          "internalType": "address",
          "name": "authAddress",
          "type": "address"
        }
      ],
      "name": "grantInitialAuthentication",
      "outputs": [],
      "stateMutability": "nonpayable",
      "type": "function"
    },
    {
      "inputs": [],
      "name": "initialAddressSet",
      "outputs": [
        {
          "internalType": "bool",
          "name": "",
          "type": "bool"
        }
      ],
      "stateMutability": "view",
      "type": "function"
    },
    {
      "inputs": [],
      "name": "name",
      "outputs": [
        {
          "internalType": "string",
          "name": "",
          "type": "string"
        }
      ],
      "stateMutability": "view",
      "type": "function"
    },
    {
      "inputs": [],
      "name": "owner",
      "outputs": [
        {
          "internalType": "address",
          "name": "",
          "type": "address"
        }
      ],
      "stateMutability": "view",
      "type": "function"
    },
    {
      "inputs": [
        {
          "internalType": "address",
          "name": "",
          "type": "address"
        }
      ],
      "name": "pending",
      "outputs": [
        {
          "internalType": "uint256",
          "name": "",
          "type": "uint256"
        }
      ],
      "stateMutability": "view",
      "type": "function"
    },
    {
      "inputs": [
        {
          "internalType": "address",
          "name": "",
          "type": "address"
        }
      ],
      "name": "proxies",
      "outputs": [
        {
          "internalType": "contract OwnableDelegateProxy",
          "name": "",
          "type": "address"
        }
      ],
      "stateMutability": "view",
      "type": "function"
    },
    {
      "inputs": [],
      "name": "registerProxy",
      "outputs": [
        {
          "internalType": "contract OwnableDelegateProxy",
          "name": "proxy",
          "type": "address"
        }
      ],
      "stateMutability": "nonpayable",
      "type": "function"
    },
    {
      "inputs": [
        {
          "internalType": "address",
          "name": "user",
          "type": "address"
        }
      ],
      "name": "registerProxyFor",
      "outputs": [
        {
          "internalType": "contract OwnableDelegateProxy",
          "name": "proxy",
          "type": "address"
        }
      ],
      "stateMutability": "nonpayable",
      "type": "function"
    },
    {
      "inputs": [],
      "name": "registerProxyOverride",
      "outputs": [
        {
          "internalType": "contract OwnableDelegateProxy",
          "name": "proxy",
          "type": "address"
        }
      ],
      "stateMutability": "nonpayable",
      "type": "function"
    },
    {
      "inputs": [],
      "name": "renounceOwnership",
      "outputs": [],
      "stateMutability": "nonpayable",
      "type": "function"
    },
    {
      "inputs": [
        {
          "internalType": "address",
          "name": "addr",
          "type": "address"
        }
      ],
      "name": "revokeAuthentication",
      "outputs": [],
      "stateMutability": "nonpayable",
      "type": "function"
    },
    {
      "inputs": [
        {
          "internalType": "address",
          "name": "addr",
          "type": "address"
        }
      ],
      "name": "startGrantAuthentication",
      "outputs": [],
      "stateMutability": "nonpayable",
      "type": "function"
    },
    {
      "inputs": [
        {
          "internalType": "address",
          "name": "from",
          "type": "address"
        },
        {
          "internalType": "address",
          "name": "to",
          "type": "address"
        }
      ],
      "name": "transferAccessTo",
      "outputs": [],
      "stateMutability": "nonpayable",
      "type": "function"
    },
    {
      "inputs": [
        {
          "internalType": "address",
          "name": "newOwner",
          "type": "address"
        }
      ],
      "name": "transferOwnership",
      "outputs": [],
      "stateMutability": "nonpayable",
      "type": "function"
    }
  ],
  "transactionHash": "0xefaba70e706b21293473714d7173503626f5d9d6cc9cd0453333e38cbbad36ca",
  "args": [],
  "solcInputHash": "b3b0afc65ec9ec55274f57b701bf3c05",
  "bytecode": "0x6080604052621275006005556006805460ff1916905534801561002157600080fd5b5061002b3361013a565b60006040516100399061018a565b604051809103906000f080158015610055573d6000803e3d6000fd5b5060405163485cc95560e01b8152306004820181905260248201529091506001600160a01b0382169063485cc95590604401600060405180830381600087803b1580156100a157600080fd5b505af11580156100b5573d6000803e3d6000fd5b5050604051634c93505f60e01b8152600160048201526001600160a01b0384169250634c93505f9150602401600060405180830381600087803b1580156100fb57600080fd5b505af115801561010f573d6000803e3d6000fd5b5050600180546001600160a01b0319166001600160a01b039490941693909317909255506101979050565b600080546001600160a01b038381166001600160a01b0319831681178455604051919092169283917f8be0079c531659141344cd1fd0a4f28419497f9722a3daafe3b4186f6b6457e09190a35050565b6110178061182783390190565b611681806101a66000396000f3fe60806040523480156200001157600080fd5b50600436106200012c5760003560e01c80638da5cb5b11620000af578063dcfa9222116200007a578063dcfa922214620002d5578063ddd81f8214620002ec578063e71a02e114620002f6578063ef7f38341462000300578063f2fde38b146200031757600080fd5b80638da5cb5b146200026c57806397204d8e146200027e578063c45527911462000292578063d4e8e06314620002be57600080fd5b806353376d1f11620000fc57806353376d1f14620001e95780635eebea201462000200578063631d9e3f146200023257806369dc9ff3146200023c578063715018a6146200026257600080fd5b8062686741146200013157806306fdde0314620001655780631a86ac4f14620001b157806338b6e40714620001d0575b600080fd5b620001486200014236600462000b2f565b6200032e565b6040516001600160a01b0390911681526020015b60405180910390f35b620001a26040518060400160405280602081526020017f4c656769744172742050726f746f636f6c2050726f787920526567697374727981525081565b6040516200015c919062000c0f565b600654620001bf9060ff1681565b60405190151581526020016200015c565b620001e7620001e136600462000b2f565b62000456565b005b620001e7620001fa36600462000b2f565b620005ab565b620002236200021136600462000b2f565b60036020526000908152604090205481565b6040519081526020016200015c565b62000148620005f9565b620001bf6200024d36600462000b2f565b60046020526000908152604090205460ff1681565b620001e7620006b0565b6000546001600160a01b031662000148565b60015462000148906001600160a01b031681565b62000148620002a336600462000b2f565b6002602052600090815260409020546001600160a01b031681565b620001e7620002cf36600462000b2f565b620006eb565b620001e7620002e636600462000b53565b620007de565b6200014862000923565b6200022360055481565b620001e76200031136600462000b2f565b62000935565b620001e76200032836600462000b2f565b62000a12565b6001600160a01b03818116600090815260026020526040812054909116156200039e5760405162461bcd60e51b815260206004820152601860248201527f5573657220616c72656164792068617320612070726f7879000000000000000060448201526064015b60405180910390fd5b6001546040516001600160a01b0380851660248301523060448301528492169060640160408051601f198184030181529181526020820180516001600160e01b031663485cc95560e01b17905251620003f79062000b04565b620004059392919062000bd8565b604051809103906000f08015801562000422573d6000803e3d6000fd5b506001600160a01b03928316600090815260026020526040902080546001600160a01b031916938216939093179092555090565b6000546001600160a01b03163314620004835760405162461bcd60e51b8152600401620003959062000c24565b6001600160a01b03811660009081526004602052604090205460ff16158015620004c457506001600160a01b03811660009081526003602052604090205415155b8015620004f757506005546001600160a01b0382166000908152600360205260409020544291620004f59162000c59565b105b6200057a5760405162461bcd60e51b815260206004820152604660248201527f436f6e7472616374206973206e6f206c6f6e6765722070656e64696e67206f7260448201527f2068617320616c7265616479206265656e20617070726f76656420627920726560648201526567697374727960d01b608482015260a40162000395565b6001600160a01b0316600090815260036020908152604080832083905560049091529020805460ff19166001179055565b6000546001600160a01b03163314620005d85760405162461bcd60e51b8152600401620003959062000c24565b6001600160a01b03166000908152600460205260409020805460ff19169055565b600154604051336024820181905230604483015260009290916001600160a01b039091169060640160408051601f198184030181529181526020820180516001600160e01b031663485cc95560e01b17905251620006579062000b04565b620006659392919062000bd8565b604051809103906000f08015801562000682573d6000803e3d6000fd5b5033600090815260026020526040902080546001600160a01b0319166001600160a01b038316179055919050565b6000546001600160a01b03163314620006dd5760405162461bcd60e51b8152600401620003959062000c24565b620006e9600062000ab4565b565b6000546001600160a01b03163314620007185760405162461bcd60e51b8152600401620003959062000c24565b6001600160a01b03811660009081526004602052604090205460ff161580156200075857506001600160a01b038116600090815260036020526040902054155b620007c25760405162461bcd60e51b815260206004820152603360248201527f436f6e747261637420697320616c726561647920616c6c6f77656420696e2072604482015272656769737472792c206f722070656e64696e6760681b606482015260840162000395565b6001600160a01b03166000908152600360205260409020429055565b6001600160a01b0380831660009081526002602052604090205416338114620008615760405162461bcd60e51b815260206004820152602e60248201527f50726f7879207472616e736665722063616e206f6e6c792062652063616c6c6560448201526d64206279207468652070726f787960901b606482015260840162000395565b6001600160a01b038281166000908152600260205260409020541615620008e45760405162461bcd60e51b815260206004820152603060248201527f50726f7879207472616e7366657220686173206578697374696e672070726f7860448201526f3c9030b9903232b9ba34b730ba34b7b760811b606482015260840162000395565b6001600160a01b0392831660009081526002602052604080822080546001600160a01b0319908116909155938516825290208054919093169116179055565b600062000930336200032e565b905090565b6000546001600160a01b03163314620009625760405162461bcd60e51b8152600401620003959062000c24565b60065460ff1615620009dd5760405162461bcd60e51b815260206004820152603c60248201527f4c656769744172742050726f746f636f6c2050726f787920526567697374727960448201527f20696e697469616c206164647265737320616c72656164792073657400000000606482015260840162000395565b6006805460ff1990811660019081179092556001600160a01b0390921660009081526004602052604090208054909216179055565b6000546001600160a01b0316331462000a3f5760405162461bcd60e51b8152600401620003959062000c24565b6001600160a01b03811662000aa65760405162461bcd60e51b815260206004820152602660248201527f4f776e61626c653a206e6577206f776e657220697320746865207a65726f206160448201526564647265737360d01b606482015260840162000395565b62000ab18162000ab4565b50565b600080546001600160a01b038381166001600160a01b0319831681178455604051919092169283917f8be0079c531659141344cd1fd0a4f28419497f9722a3daafe3b4186f6b6457e09190a35050565b6109cd8062000c7f83390190565b80356001600160a01b038116811462000b2a57600080fd5b919050565b60006020828403121562000b41578081fd5b62000b4c8262000b12565b9392505050565b6000806040838503121562000b66578081fd5b62000b718362000b12565b915062000b816020840162000b12565b90509250929050565b60008151808452815b8181101562000bb15760208185018101518683018201520162000b93565b8181111562000bc35782602083870101525b50601f01601f19169290920160200192915050565b6001600160a01b0384811682528316602082015260606040820181905260009062000c069083018462000b8a565b95945050505050565b60208152600062000b4c602083018462000b8a565b6020808252818101527f4f776e61626c653a2063616c6c6572206973206e6f7420746865206f776e6572604082015260600190565b6000821982111562000c7957634e487b7160e01b81526011600452602481fd5b50019056fe608060405234801561001057600080fd5b506040516109cd3803806109cd83398101604081905261002f916101f0565b600180546001600160a01b0319166001600160a01b0385161790556100538261011f565b6000826001600160a01b03168260405161006d91906102bc565b600060405180830381855af49150503d80600081146100a8576040519150601f19603f3d011682016040523d82523d6000602084013e6100ad565b606091505b50509050806101165760405162461bcd60e51b815260206004820152602a60248201527f4f776e61626c6544656c656761746550726f7879206661696c656420696d706c60448201526932b6b2b73a30ba34b7b760b11b60648201526084015b60405180910390fd5b5050505061031e565b6000546001600160a01b038281169116141561018c5760405162461bcd60e51b815260206004820152602660248201527f50726f787920616c72656164792075736573207468697320696d706c656d656e6044820152653a30ba34b7b760d11b606482015260840161010d565b600080546001600160a01b0319166001600160a01b038316908117825560405190917fbc7cd75a20ee27fd9adebab32041f755214dbc6bffa90cc0225b39da2e5c2d3b91a250565b80516001600160a01b03811681146101eb57600080fd5b919050565b600080600060608486031215610204578283fd5b61020d846101d4565b925061021b602085016101d4565b60408501519092506001600160401b0380821115610237578283fd5b818601915086601f83011261024a578283fd5b81518181111561025c5761025c610308565b604051601f8201601f19908116603f0116810190838211818310171561028457610284610308565b8160405282815289602084870101111561029c578586fd5b6102ad8360208301602088016102d8565b80955050505050509250925092565b600082516102ce8184602087016102d8565b9190910192915050565b60005b838110156102f35781810151838201526020016102db565b83811115610302576000848401525b50505050565b634e487b7160e01b600052604160045260246000fd5b6106a08061032d6000396000f3fe6080604052600436106100705760003560e01c80634f1ef2861161004e5780634f1ef286146101635780635c60da1b14610176578063d3f897d414610194578063f1739cae146101b257610070565b8063025313a2146100f35780633659cfe6146101255780634555d5c914610147575b6000546001600160a01b0316806100ce5760405162461bcd60e51b815260206004820152601d60248201527f50726f787920696d706c656d656e746174696f6e20726571756972656400000060448201526064015b60405180910390fd5b60405136600082376000803683855af43d806000843e8180156100ef578184f35b8184fd5b3480156100ff57600080fd5b506101086101d2565b6040516001600160a01b0390911681526020015b60405180910390f35b34801561013157600080fd5b506101456101403660046104f4565b6101eb565b005b34801561015357600080fd5b506040516002815260200161011c565b610145610171366004610515565b61022f565b34801561018257600080fd5b506000546001600160a01b0316610108565b3480156101a057600080fd5b506001546001600160a01b0316610108565b3480156101be57600080fd5b506101456101cd3660046104f4565b610320565b60006101e66001546001600160a01b031690565b905090565b6101f36101d2565b6001600160a01b0316336001600160a01b0316146102235760405162461bcd60e51b81526004016100c59061060b565b61022c81610423565b50565b6102376101d2565b6001600160a01b0316336001600160a01b0316146102675760405162461bcd60e51b81526004016100c59061060b565b610270826101eb565b6000306001600160a01b03168260405161028a91906105d2565b600060405180830381855af49150503d80600081146102c5576040519150601f19603f3d011682016040523d82523d6000602084013e6102ca565b606091505b505090508061031b5760405162461bcd60e51b815260206004820152601f60248201527f43616c6c206661696c65642061667465722070726f787920757067726164650060448201526064016100c5565b505050565b6103286101d2565b6001600160a01b0316336001600160a01b0316146103585760405162461bcd60e51b81526004016100c59061060b565b6001600160a01b0381166103ba5760405162461bcd60e51b8152602060048201526024808201527f4e6577206f776e65722063616e6e6f7420626520746865206e756c6c206164646044820152637265737360e01b60648201526084016100c5565b7f5a3e66efaa1e445ebd894728a69d6959842ea1e97bd79b892797106e270efcd96103e36101d2565b604080516001600160a01b03928316815291841660208301520160405180910390a1600180546001600160a01b0319166001600160a01b03831617905550565b6000546001600160a01b03828116911614156104905760405162461bcd60e51b815260206004820152602660248201527f50726f787920616c72656164792075736573207468697320696d706c656d656e6044820152653a30ba34b7b760d11b60648201526084016100c5565b600080546001600160a01b0319166001600160a01b038316908117825560405190917fbc7cd75a20ee27fd9adebab32041f755214dbc6bffa90cc0225b39da2e5c2d3b91a250565b80356001600160a01b03811681146104ef57600080fd5b919050565b600060208284031215610505578081fd5b61050e826104d8565b9392505050565b60008060408385031215610527578081fd5b610530836104d8565b9150602083013567ffffffffffffffff8082111561054c578283fd5b818501915085601f83011261055f578283fd5b81358181111561057157610571610654565b604051601f8201601f19908116603f0116810190838211818310171561059957610599610654565b816040528281528860208487010111156105b1578586fd5b82602086016020830137856020848301015280955050505050509250929050565b60008251815b818110156105f257602081860181015185830152016105d8565b818111156106005782828501525b509190910192915050565b60208082526029908201527f4f6e6c79207468652070726f7879206f776e65722063616e2063616c6c2074686040820152681a5cc81b595d1a1bd960ba1b606082015260800190565b634e487b7160e01b600052604160045260246000fdfea264697066735822122073a6d92d569ba8a80544a5b2f868c347e0fbe77b67089d55a41a6fab99e9322864736f6c63430008040033a2646970667358221220d16ee5165ee8b71d524a1a3e123a1a7e6cc65a34ff1d6ca6114b8b5a34f5cb6e64736f6c6343000804003360806040526001805460ff60a01b1916905534801561001d57600080fd5b50610fea8061002d6000396000f3fe60806040526004361061009c5760003560e01c806363d256ce1161006457806363d256ce146101705780636b42c9ce146101915780637b103999146101be5780638f4ffcb1146101de578063d3f897d4146101fe578063f7260d3e1461021c57600080fd5b80631b0f7ba9146100a15780633f801f91146100d6578063485cc955146100f85780634c93505f146101185780634f8632ba14610138575b600080fd5b3480156100ad57600080fd5b506100c16100bc366004610b8c565b610224565b60405190151581526020015b60405180910390f35b3480156100e257600080fd5b506100f66100f1366004610b8c565b6104e8565b005b34801561010457600080fd5b506100f6610113366004610b54565b61053d565b34801561012457600080fd5b506100f6610133366004610d30565b6105e8565b34801561014457600080fd5b50600254610158906001600160a01b031681565b6040516001600160a01b0390911681526020016100cd565b34801561017c57600080fd5b506003546100c190600160a01b900460ff1681565b34801561019d57600080fd5b506101b16101ac366004610c54565b6106b6565b6040516100cd9190610e2a565b3480156101ca57600080fd5b50600354610158906001600160a01b031681565b3480156101ea57600080fd5b506100f66101f9366004610bea565b61084d565b34801561020a57600080fd5b506001546001600160a01b0316610158565b6100f6610978565b6002546000906001600160a01b03163314806102cb5750600354600160a01b900460ff161580156102cb57506003546040516369dc9ff360e01b81523360048201526001600160a01b03909116906369dc9ff39060240160206040518083038186803b15801561029357600080fd5b505afa1580156102a7573d6000803e3d6000fd5b505050506040513d601f19601f820116820180604052508101906102cb9190610d53565b6103a15760405162461bcd60e51b815260206004820152608a60248201527f41757468656e746963617465642070726f78792063616e206f6e6c792062652060448201527f63616c6c65642062792069747320757365722c206f72206279206120636f6e7460648201527f7261637420617574686f72697a6564206279207468652072656769737472792060848201527f6173206c6f6e6720617320746865207573657220686173206e6f74207265766f60a4820152696b65642061636365737360b01b60c482015260e4015b60405180910390fd5b606060008460018111156103c557634e487b7160e01b600052602160045260246000fd5b141561043057846001600160a01b0316836040516103e39190610e0e565b6000604051808303816000865af19150503d8060008114610420576040519150601f19603f3d011682016040523d82523d6000602084013e610425565b606091505b5090925090506104b7565b600184600181111561045257634e487b7160e01b600052602160045260246000fd5b14156104b757846001600160a01b0316836040516104709190610e0e565b600060405180830381855af49150503d80600081146104ab576040519150601f19603f3d011682016040523d82523d6000602084013e6104b0565b606091505b5090925090505b816104c1826109af565b906104df5760405162461bcd60e51b81526004016103989190610e70565b50509392505050565b6104f3838383610224565b6105385760405162461bcd60e51b8152602060048201526016602482015275141c9bde1e48185cdcd95c9d1a5bdb8819985a5b195960521b6044820152606401610398565b505050565b600154600160a01b900460ff16156105a75760405162461bcd60e51b815260206004820152602760248201527f41757468656e746963617465642070726f787920616c726561647920696e69746044820152661a585b1a5e995960ca1b6064820152608401610398565b6001805460ff60a01b1916600160a01b179055600280546001600160a01b039384166001600160a01b03199182161790915560038054929093169116179055565b6002546001600160a01b0316331461065e5760405162461bcd60e51b815260206004820152603360248201527f41757468656e746963617465642070726f78792063616e206f6e6c79206265206044820152723932bb37b5b2b210313c9034ba39903ab9b2b960691b6064820152608401610398565b60038054821515600160a01b0260ff60a01b199091161790556040517f2165014523a6f4135deffed62d70149aad59b64de5aac51e3abbcbe2a83e2f7e906106ab90831515815260200190565b60405180910390a150565b6060825184511480156106ca575081518351145b6107255760405162461bcd60e51b815260206004820152602660248201527f617272617973206c656e6774682068617665206e6f74207468652073616d65206044820152650d8cadccee8d60d31b6064820152608401610398565b835167ffffffffffffffff81111561074d57634e487b7160e01b600052604160045260246000fd5b604051908082528060200260200182016040528015610776578160200160208202803683370190505b50905060005b8451811015610845576108058582815181106107a857634e487b7160e01b600052603260045260246000fd5b60200260200101518583815181106107d057634e487b7160e01b600052603260045260246000fd5b60200260200101518584815181106107f857634e487b7160e01b600052603260045260246000fd5b6020026020010151610224565b82828151811061082557634e487b7160e01b600052603260045260246000fd5b9115156020928302919091019091015261083e81610f51565b905061077c565b509392505050565b6040516323b872dd60e01b81526001600160a01b038581166004830152306024830152604482018590528391908216906323b872dd90606401602060405180830381600087803b1580156108a057600080fd5b505af11580156108b4573d6000803e3d6000fd5b505050506040513d601f19601f820116820180604052508101906108d89190610d53565b6109245760405162461bcd60e51b815260206004820152601b60248201527f455243323020746f6b656e207472616e73666572206661696c656400000000006044820152606401610398565b826001600160a01b0316856001600160a01b03167fd65b48fd35864b3528d38e44760be5553248f89bf3ff6b06cca57817cc2650bf8685604051610969929190610e83565b60405180910390a35050505050565b60405134815233907fa419615bc8fda4c87663805ee2a3597a6d71c1d476911d9892f340d965bc7bf19060200160405180910390a2565b805160609060448110156109d3575050604080516020810190915260008152919050565b6004830180516003198301825290936109f59083810160200190602401610d6f565b93525090919050565b600082601f830112610a0e578081fd5b81356020610a23610a1e83610ed5565b610ea4565b80838252828201915082860187848660051b8901011115610a42578586fd5b855b85811015610a8357813567ffffffffffffffff811115610a62578788fd5b610a708a87838c0101610af4565b8552509284019290840190600101610a44565b5090979650505050505050565b600082601f830112610aa0578081fd5b81356020610ab0610a1e83610ed5565b80838252828201915082860187848660051b8901011115610acf578586fd5b855b85811015610a8357610ae282610b40565b84529284019290840190600101610ad1565b600082601f830112610b04578081fd5b8135610b12610a1e82610ef9565b818152846020838601011115610b26578283fd5b816020850160208301379081016020019190915292915050565b803560028110610b4f57600080fd5b919050565b60008060408385031215610b66578182fd5b8235610b7181610f8e565b91506020830135610b8181610f8e565b809150509250929050565b600080600060608486031215610ba0578081fd5b8335610bab81610f8e565b9250610bb960208501610b40565b9150604084013567ffffffffffffffff811115610bd4578182fd5b610be086828701610af4565b9150509250925092565b60008060008060808587031215610bff578081fd5b8435610c0a81610f8e565b9350602085013592506040850135610c2181610f8e565b9150606085013567ffffffffffffffff811115610c3c578182fd5b610c4887828801610af4565b91505092959194509250565b600080600060608486031215610c68578283fd5b833567ffffffffffffffff80821115610c7f578485fd5b818601915086601f830112610c92578485fd5b81356020610ca2610a1e83610ed5565b8083825282820191508286018b848660051b8901011115610cc157898afd5b8996505b84871015610cec578035610cd881610f8e565b835260019690960195918301918301610cc5565b5097505087013592505080821115610d02578384fd5b610d0e87838801610a90565b93506040860135915080821115610d23578283fd5b50610be0868287016109fe565b600060208284031215610d41578081fd5b8135610d4c81610fa6565b9392505050565b600060208284031215610d64578081fd5b8151610d4c81610fa6565b600060208284031215610d80578081fd5b815167ffffffffffffffff811115610d96578182fd5b8201601f81018413610da6578182fd5b8051610db4610a1e82610ef9565b818152856020838501011115610dc8578384fd5b610dd9826020830160208601610f21565b95945050505050565b60008151808452610dfa816020860160208601610f21565b601f01601f19169290920160200192915050565b60008251610e20818460208701610f21565b9190910192915050565b6020808252825182820181905260009190848201906040850190845b81811015610e64578351151583529284019291840191600101610e46565b50909695505050505050565b602081526000610d4c6020830184610de2565b828152604060208201526000610e9c6040830184610de2565b949350505050565b604051601f8201601f1916810167ffffffffffffffff81118282101715610ecd57610ecd610f78565b604052919050565b600067ffffffffffffffff821115610eef57610eef610f78565b5060051b60200190565b600067ffffffffffffffff821115610f1357610f13610f78565b50601f01601f191660200190565b60005b83811015610f3c578181015183820152602001610f24565b83811115610f4b576000848401525b50505050565b6000600019821415610f7157634e487b7160e01b81526011600452602481fd5b5060010190565b634e487b7160e01b600052604160045260246000fd5b6001600160a01b0381168114610fa357600080fd5b50565b8015158114610fa357600080fdfea26469706673582212204267d80c405a277e3a4323eae6d64743deb0ea09322143d827111bec768c8c2e64736f6c63430008040033",
  "devdoc": {
    "author": "Wyvern Protocol Developers",
    "kind": "dev",
    "methods": {
      "endGrantAuthentication(address)": {
        "details": "ProxyRegistry owner only",
        "params": {
          "addr": "Address to which to grant permissions"
        }
      },
      "grantInitialAuthentication(address)": {
        "details": "No delay, can only be called once - after that the standard registry process with a delay must be used",
        "params": {
          "authAddress": "Address of the contract to grant authentication"
        }
      },
      "owner()": {
        "details": "Returns the address of the current owner."
      },
      "registerProxy()": {
        "details": "Must be called by the user which the proxy is for, creates a new AuthenticatedProxy",
        "returns": {
          "proxy": "New AuthenticatedProxy contract"
        }
      },
      "registerProxyFor(address)": {
        "details": "Can be called by any user",
        "returns": {
          "proxy": "New AuthenticatedProxy contract"
        }
      },
      "registerProxyOverride()": {
        "details": "Must be called by the user which the proxy is for, creates a new AuthenticatedProxy",
        "returns": {
          "proxy": "New AuthenticatedProxy contract"
        }
      },
      "renounceOwnership()": {
        "details": "Leaves the contract without owner. It will not be possible to call `onlyOwner` functions anymore. Can only be called by the current owner. NOTE: Renouncing ownership will leave the contract without an owner, thereby removing any functionality that is only available to the owner."
      },
      "revokeAuthentication(address)": {
        "details": "ProxyRegistry owner only",
        "params": {
          "addr": "Address of which to revoke permissions"
        }
      },
      "startGrantAuthentication(address)": {
        "details": "ProxyRegistry owner only",
        "params": {
          "addr": "Address to which to grant permissions"
        }
      },
      "transferOwnership(address)": {
        "details": "Transfers ownership of the contract to a new account (`newOwner`). Can only be called by the current owner."
      }
    },
    "title": "WyvernRegistry",
    "version": 1
  },
  "userdoc": {
    "kind": "user",
    "methods": {
      "endGrantAuthentication(address)": {
        "notice": "End the process to enable access for specified contract after delay period has passed."
      },
      "grantInitialAuthentication(address)": {
        "notice": "Grant authentication to the initial Exchange protocol contract"
      },
      "registerProxy()": {
        "notice": "Register a proxy contract with this registry"
      },
      "registerProxyFor(address)": {
        "notice": "Register a proxy contract with this registry"
      },
      "registerProxyOverride()": {
        "notice": "Register a proxy contract with this registry, overriding any existing proxy"
      },
      "revokeAuthentication(address)": {
        "notice": "Revoke access for specified contract. Can be done instantly."
      },
      "startGrantAuthentication(address)": {
        "notice": "Start the process to enable access for specified contract. Subject to delay period."
      },
      "transferAccessTo(address,address)": {
        "notice": "Transfer access"
      }
    },
    "version": 1
  },
  "storageLayout": {
    "storage": [
      {
        "astId": 387,
        "contract": "contracts/registry/LegitArtRegistry.sol:LegitArtRegistry",
        "label": "_owner",
        "offset": 0,
        "slot": "0",
        "type": "t_address"
      },
      {
        "astId": 5502,
        "contract": "contracts/registry/LegitArtRegistry.sol:LegitArtRegistry",
        "label": "delegateProxyImplementation",
        "offset": 0,
        "slot": "1",
        "type": "t_address"
      },
      {
        "astId": 5508,
        "contract": "contracts/registry/LegitArtRegistry.sol:LegitArtRegistry",
        "label": "proxies",
        "offset": 0,
        "slot": "2",
        "type": "t_mapping(t_address,t_contract(OwnableDelegateProxy)5489)"
      },
      {
        "astId": 5512,
        "contract": "contracts/registry/LegitArtRegistry.sol:LegitArtRegistry",
        "label": "pending",
        "offset": 0,
        "slot": "3",
        "type": "t_mapping(t_address,t_uint256)"
      },
      {
        "astId": 5516,
        "contract": "contracts/registry/LegitArtRegistry.sol:LegitArtRegistry",
        "label": "contracts",
        "offset": 0,
        "slot": "4",
        "type": "t_mapping(t_address,t_bool)"
      },
      {
        "astId": 5519,
        "contract": "contracts/registry/LegitArtRegistry.sol:LegitArtRegistry",
        "label": "DELAY_PERIOD",
        "offset": 0,
        "slot": "5",
        "type": "t_uint256"
      },
      {
        "astId": 5391,
        "contract": "contracts/registry/LegitArtRegistry.sol:LegitArtRegistry",
        "label": "initialAddressSet",
        "offset": 0,
        "slot": "6",
        "type": "t_bool"
      }
    ],
    "types": {
      "t_address": {
        "encoding": "inplace",
        "label": "address",
        "numberOfBytes": "20"
      },
      "t_bool": {
        "encoding": "inplace",
        "label": "bool",
        "numberOfBytes": "1"
      },
      "t_contract(OwnableDelegateProxy)5489": {
        "encoding": "inplace",
        "label": "contract OwnableDelegateProxy",
        "numberOfBytes": "20"
      },
      "t_mapping(t_address,t_bool)": {
        "encoding": "mapping",
        "key": "t_address",
        "label": "mapping(address => bool)",
        "numberOfBytes": "32",
        "value": "t_bool"
      },
      "t_mapping(t_address,t_contract(OwnableDelegateProxy)5489)": {
        "encoding": "mapping",
        "key": "t_address",
        "label": "mapping(address => contract OwnableDelegateProxy)",
        "numberOfBytes": "32",
        "value": "t_contract(OwnableDelegateProxy)5489"
      },
      "t_mapping(t_address,t_uint256)": {
        "encoding": "mapping",
        "key": "t_address",
        "label": "mapping(address => uint256)",
        "numberOfBytes": "32",
        "value": "t_uint256"
      },
      "t_uint256": {
        "encoding": "inplace",
        "label": "uint256",
        "numberOfBytes": "32"
      }
    }
  }
}