{
  "address": "0xc43d2E3727625E839FbFa5f2187bBEfa1F3beEF9",
  "abi": [
    {
      "inputs": [
        {
          "internalType": "contract IERC20",
          "name": "_usdc",
          "type": "address"
        },
        {
          "internalType": "contract ILegitArtERC721",
          "name": "_legitArtNFT",
          "type": "address"
        },
        {
          "internalType": "address",
          "name": "_feeBeneficiary",
          "type": "address"
        },
        {
          "internalType": "uint256",
          "name": "_primaryFeePercentage",
          "type": "uint256"
        },
        {
          "internalType": "uint256",
          "name": "_secondaryFeePercentage",
          "type": "uint256"
        },
        {
          "internalType": "uint256",
          "name": "_royaltyFeePercentage",
          "type": "uint256"
        }
      ],
      "stateMutability": "nonpayable",
      "type": "constructor"
    },
    {
      "anonymous": false,
      "inputs": [
        {
          "indexed": true,
          "internalType": "address",
          "name": "oldFeeBeneficiary",
          "type": "address"
        },
        {
          "indexed": true,
          "internalType": "address",
          "name": "newFeeBeneficiary",
          "type": "address"
        }
      ],
      "name": "FeeBeneficiaryUpdated",
      "type": "event"
    },
    {
      "anonymous": false,
      "inputs": [
        {
          "indexed": true,
          "internalType": "bytes32",
          "name": "orderId",
          "type": "bytes32"
        }
      ],
      "name": "OrderCanceled",
      "type": "event"
    },
    {
      "anonymous": false,
      "inputs": [
        {
          "indexed": true,
          "internalType": "bytes32",
          "name": "orderId",
          "type": "bytes32"
        },
        {
          "indexed": false,
          "internalType": "address",
          "name": "buyer",
          "type": "address"
        },
        {
          "indexed": false,
          "internalType": "uint256",
          "name": "protocolFeeCollected",
          "type": "uint256"
        },
        {
          "indexed": false,
          "internalType": "uint256",
          "name": "royaltyFeeCollected",
          "type": "uint256"
        }
      ],
      "name": "OrderExecuted",
      "type": "event"
    },
    {
      "anonymous": false,
      "inputs": [
        {
          "indexed": true,
          "internalType": "bytes32",
          "name": "orderId",
          "type": "bytes32"
        },
        {
          "indexed": true,
          "internalType": "address",
          "name": "nftContract",
          "type": "address"
        },
        {
          "indexed": true,
          "internalType": "uint256",
          "name": "tokenId",
          "type": "uint256"
        },
        {
          "indexed": false,
          "internalType": "address",
          "name": "seller",
          "type": "address"
        },
        {
          "indexed": false,
          "internalType": "uint256",
          "name": "price",
          "type": "uint256"
        }
      ],
      "name": "OrderPlaced",
      "type": "event"
    },
    {
      "anonymous": false,
      "inputs": [
        {
          "indexed": true,
          "internalType": "bytes32",
          "name": "orderId",
          "type": "bytes32"
        },
        {
          "indexed": false,
          "internalType": "uint256",
          "name": "newPrice",
          "type": "uint256"
        }
      ],
      "name": "OrderUpdated",
      "type": "event"
    },
    {
      "anonymous": false,
      "inputs": [
        {
          "indexed": true,
          "internalType": "address",
          "name": "previousOwner",
          "type": "address"
        },
        {
          "indexed": true,
          "internalType": "address",
          "name": "newOwner",
          "type": "address"
        }
      ],
      "name": "OwnershipTransferred",
      "type": "event"
    },
    {
      "anonymous": false,
      "inputs": [
        {
          "indexed": false,
          "internalType": "uint256",
          "name": "oldPrimaryFeePercentage",
          "type": "uint256"
        },
        {
          "indexed": false,
          "internalType": "uint256",
          "name": "newPrimaryFeePercentage",
          "type": "uint256"
        }
      ],
      "name": "PrimaryFeePercentageUpdated",
      "type": "event"
    },
    {
      "anonymous": false,
      "inputs": [
        {
          "indexed": false,
          "internalType": "uint256",
          "name": "oldRoyaltyFeePercentage",
          "type": "uint256"
        },
        {
          "indexed": false,
          "internalType": "uint256",
          "name": "newRoyaltyFeePercentage",
          "type": "uint256"
        }
      ],
      "name": "RoyaltyFeePercentageUpdated",
      "type": "event"
    },
    {
      "anonymous": false,
      "inputs": [
        {
          "indexed": false,
          "internalType": "uint256",
          "name": "oldSecondaryFeePercentage",
          "type": "uint256"
        },
        {
          "indexed": false,
          "internalType": "uint256",
          "name": "newSecondaryFeePercentage",
          "type": "uint256"
        }
      ],
      "name": "SecondaryFeePercentageUpdated",
      "type": "event"
    },
    {
      "inputs": [
        {
          "components": [
            {
              "internalType": "uint256",
              "name": "tokenId",
              "type": "uint256"
            },
            {
              "internalType": "uint256",
              "name": "price",
              "type": "uint256"
            },
            {
              "internalType": "string",
              "name": "uri",
              "type": "string"
            },
            {
              "internalType": "uint256",
              "name": "createdAt",
              "type": "uint256"
            },
            {
              "internalType": "bytes",
              "name": "signature",
              "type": "bytes"
            }
          ],
          "internalType": "struct MarketPlace.NFTVoucher",
          "name": "_voucher",
          "type": "tuple"
        }
      ],
      "name": "cancelLazy",
      "outputs": [],
      "stateMutability": "nonpayable",
      "type": "function"
    },
    {
      "inputs": [
        {
          "internalType": "bytes32",
          "name": "_orderId",
          "type": "bytes32"
        }
      ],
      "name": "cancelOrder",
      "outputs": [],
      "stateMutability": "nonpayable",
      "type": "function"
    },
    {
      "inputs": [
        {
          "components": [
            {
              "internalType": "uint256",
              "name": "tokenId",
              "type": "uint256"
            },
            {
              "internalType": "uint256",
              "name": "price",
              "type": "uint256"
            },
            {
              "internalType": "string",
              "name": "uri",
              "type": "string"
            },
            {
              "internalType": "uint256",
              "name": "createdAt",
              "type": "uint256"
            },
            {
              "internalType": "bytes",
              "name": "signature",
              "type": "bytes"
            }
          ],
          "internalType": "struct MarketPlace.NFTVoucher",
          "name": "_voucher",
          "type": "tuple"
        }
      ],
      "name": "executeLazy",
      "outputs": [],
      "stateMutability": "nonpayable",
      "type": "function"
    },
    {
      "inputs": [
        {
          "internalType": "bytes32",
          "name": "_orderId",
          "type": "bytes32"
        }
      ],
      "name": "executeOrder",
      "outputs": [],
      "stateMutability": "nonpayable",
      "type": "function"
    },
    {
      "inputs": [],
      "name": "feeBeneficiary",
      "outputs": [
        {
          "internalType": "address",
          "name": "",
          "type": "address"
        }
      ],
      "stateMutability": "view",
      "type": "function"
    },
    {
      "inputs": [],
      "name": "legitArtNFT",
      "outputs": [
        {
          "internalType": "contract ILegitArtERC721",
          "name": "",
          "type": "address"
        }
      ],
      "stateMutability": "view",
      "type": "function"
    },
    {
      "inputs": [
        {
          "internalType": "bytes32",
          "name": "",
          "type": "bytes32"
        }
      ],
      "name": "orders",
      "outputs": [
        {
          "internalType": "address",
          "name": "nftContract",
          "type": "address"
        },
        {
          "internalType": "uint256",
          "name": "tokenId",
          "type": "uint256"
        },
        {
          "internalType": "address",
          "name": "seller",
          "type": "address"
        },
        {
          "internalType": "address",
          "name": "buyer",
          "type": "address"
        },
        {
          "internalType": "uint256",
          "name": "price",
          "type": "uint256"
        },
        {
          "internalType": "uint256",
          "name": "createdAt",
          "type": "uint256"
        },
        {
          "internalType": "enum MarketPlaceCore.OrderStatus",
          "name": "status",
          "type": "uint8"
        }
      ],
      "stateMutability": "view",
      "type": "function"
    },
    {
      "inputs": [],
      "name": "owner",
      "outputs": [
        {
          "internalType": "address",
          "name": "",
          "type": "address"
        }
      ],
      "stateMutability": "view",
      "type": "function"
    },
    {
      "inputs": [
        {
          "internalType": "address",
          "name": "_nftContract",
          "type": "address"
        },
        {
          "internalType": "uint256",
          "name": "_tokenId",
          "type": "uint256"
        },
        {
          "internalType": "uint256",
          "name": "_price",
          "type": "uint256"
        }
      ],
      "name": "placeOrder",
      "outputs": [
        {
          "internalType": "bytes32",
          "name": "orderId",
          "type": "bytes32"
        }
      ],
      "stateMutability": "nonpayable",
      "type": "function"
    },
    {
      "inputs": [],
      "name": "primaryFeePercentage",
      "outputs": [
        {
          "internalType": "uint256",
          "name": "",
          "type": "uint256"
        }
      ],
      "stateMutability": "view",
      "type": "function"
    },
    {
      "inputs": [],
      "name": "renounceOwnership",
      "outputs": [],
      "stateMutability": "nonpayable",
      "type": "function"
    },
    {
      "inputs": [],
      "name": "royaltyFeePercentage",
      "outputs": [
        {
          "internalType": "uint256",
          "name": "",
          "type": "uint256"
        }
      ],
      "stateMutability": "view",
      "type": "function"
    },
    {
      "inputs": [],
      "name": "secondaryFeePercentage",
      "outputs": [
        {
          "internalType": "uint256",
          "name": "",
          "type": "uint256"
        }
      ],
      "stateMutability": "view",
      "type": "function"
    },
    {
      "inputs": [
        {
          "internalType": "address",
          "name": "newOwner",
          "type": "address"
        }
      ],
      "name": "transferOwnership",
      "outputs": [],
      "stateMutability": "nonpayable",
      "type": "function"
    },
    {
      "inputs": [
        {
          "internalType": "address",
          "name": "_newFeeBenenficiary",
          "type": "address"
        }
      ],
      "name": "updateFeeBeneficiary",
      "outputs": [],
      "stateMutability": "nonpayable",
      "type": "function"
    },
    {
      "inputs": [
        {
          "internalType": "bytes32",
          "name": "_orderId",
          "type": "bytes32"
        },
        {
          "internalType": "uint256",
          "name": "_newPrice",
          "type": "uint256"
        }
      ],
      "name": "updateOrder",
      "outputs": [],
      "stateMutability": "nonpayable",
      "type": "function"
    },
    {
      "inputs": [
        {
          "internalType": "uint256",
          "name": "_newPrimaryFeePercentage",
          "type": "uint256"
        }
      ],
      "name": "updatePrimaryFeePercentage",
      "outputs": [],
      "stateMutability": "nonpayable",
      "type": "function"
    },
    {
      "inputs": [
        {
          "internalType": "uint256",
          "name": "_newRoyaltyFeePercentage",
          "type": "uint256"
        }
      ],
      "name": "updateRoyaltyFeePercentage",
      "outputs": [],
      "stateMutability": "nonpayable",
      "type": "function"
    },
    {
      "inputs": [
        {
          "internalType": "uint256",
          "name": "_newSecondaryFeePercentage",
          "type": "uint256"
        }
      ],
      "name": "updateSecondaryFeePercentage",
      "outputs": [],
      "stateMutability": "nonpayable",
      "type": "function"
    },
    {
      "inputs": [],
      "name": "usdc",
      "outputs": [
        {
          "internalType": "contract IERC20",
          "name": "",
          "type": "address"
        }
      ],
      "stateMutability": "view",
      "type": "function"
    }
  ],
  "transactionHash": "0x640d835cea01cf987b92635cbeaccfe8a63a297d439e7dd45ca9ca0ae2140160",
  "args": [
    "0xA0b86991c6218b36c1d19D4a2e9Eb0cE3606eB48",
    "0x5EDD0DCD5D7566D73364237B19b3C32416f66738",
    "0x0000000000000000000000000000000000000000",
    "10000000000000000",
    "20000000000000000",
    "30000000000000000"
  ],
  "solcInputHash": "b3b0afc65ec9ec55274f57b701bf3c05",
  "bytecode": "0x6101406040523480156200001257600080fd5b506040516200284f3803806200284f8339810160408190526200003591620001ea565b6040518060400160405280600e81526020016d4c6567697441727445524337323160901b815250604051806040016040528060018152602001603160f81b81525087878787878762000096620000906200019660201b60201c565b6200019a565b6001805560609590951b6001600160601b031916608052600380546001600160a01b03199081166001600160a01b0396871617909155600480549091169390941692909217909255600591909155600655600755815160208084019190912082519183019190912060e08290526101008190524660c0527f8b73c3c69bb8fe3d512ecc4cf759cc79239f7b179b0ffacaa9a75d522b39400f6200017e8184846040805160208101859052908101839052606081018290524660808201523060a082015260009060c0016040516020818303038152906040528051906020012090509392505050565b60a05261012052506200027298505050505050505050565b3390565b600080546001600160a01b038381166001600160a01b0319831681178455604051919092169283917f8be0079c531659141344cd1fd0a4f28419497f9722a3daafe3b4186f6b6457e09190a35050565b60008060008060008060c0878903121562000203578182fd5b8651620002108162000259565b6020880151909650620002238162000259565b6040880151909550620002368162000259565b80945050606087015192506080870151915060a087015190509295509295509295565b6001600160a01b03811681146200026f57600080fd5b50565b60805160601c60a05160c05160e0516101005161012051612575620002da6000396000611d3c01526000611d8b01526000611d6601526000611cea01526000611d13015260008181610196015281816114c60152818161150401526115c901526125756000f3fe608060405234801561001057600080fd5b506004361061012c5760003560e01c8063715018a6116100ad578063c5fa272c11610071578063c5fa272c146102ca578063c7bb27c2146102dd578063cb063e90146102e6578063d2eb77e3146102f9578063f2fde38b1461030c57600080fd5b8063715018a61461021c5780637489ec231461022457806377e16afe146102375780638da5cb5b1461024a5780639c3f1e901461025b57600080fd5b80633e413bee116100f45780633e413bee14610191578063492fb343146101d05780634e039ef3146101e357806364a7601b146101f65780636c5728931461020957600080fd5b8063049b76c41461013157806307663f28146101465780630ce76131146101625780632d07bf6c146101755780633a16eca014610188575b600080fd5b61014461013f3660046120f9565b61031f565b005b61014f60055481565b6040519081526020015b60405180910390f35b6101446101703660046120f9565b610360565b6101446101833660046120f9565b610415565b61014f60075481565b6101b87f000000000000000000000000000000000000000000000000000000000000000081565b6040516001600160a01b039091168152602001610159565b6004546101b8906001600160a01b031681565b6101446101f1366004612132565b6104ca565b610144610204366004612111565b6107c0565b61014461021736600461206d565b610914565b610144610a52565b6101446102323660046120f9565b610a88565b61014f6102453660046120a5565b610c4c565b6000546001600160a01b03166101b8565b6102b76102693660046120f9565b600260208190526000918252604090912080546001820154928201546003830154600484015460058501546006909501546001600160a01b0394851696959385169490921692909160ff1687565b6040516101599796959493929190612278565b6101446102d8366004612132565b610c9b565b61014f60065481565b6003546101b8906001600160a01b031681565b6101446103073660046120f9565b610e36565b61014461031a36600461206d565b610eeb565b6002600154141561034b5760405162461bcd60e51b8152600401610342906123ea565b60405180910390fd5b600260015561035981610f86565b5060018055565b6000546001600160a01b0316331461038a5760405162461bcd60e51b815260040161034290612350565b670de0b6b3a76400008111156103b25760405162461bcd60e51b815260040161034290612385565b6007548114156103d45760405162461bcd60e51b8152600401610342906122e2565b60075460408051918252602082018390527f907b9ee92fe7af7edbeda2c0d9f09d06c3089c79c134ebe87045ad9fd33bbe7b910160405180910390a1600755565b6000546001600160a01b0316331461043f5760405162461bcd60e51b815260040161034290612350565b670de0b6b3a76400008111156104675760405162461bcd60e51b815260040161034290612385565b6005548114156104895760405162461bcd60e51b8152600401610342906122e2565b60055460408051918252602082018390527f4db4d901ad8626f276a571bd4feec7ed6707a32ee8d4a246b3cda55e99190c62910160405180910390a1600555565b600260015414156104ed5760405162461bcd60e51b8152600401610342906123ea565b600260015560006104fd82611160565b905060006105096111c0565b6003549091506001600160a01b03166000610530828635602088013560608901358861123f565b905061053b81611296565b1561059a5760405162461bcd60e51b815260206004820152602960248201527f4973206e6f7420706f737369626c6520746f206578656375746520612073746f6044820152683932b21037b93232b960b91b6064820152608401610342565b6105b2828635602088013560608901358860026112b3565b5060008181526002602081815260408084206003810180546001600160a01b0319166001600160a01b038a8116918217909255835160e0810185528354831681526001840154958101959095528286015490911692840192909252606083019190915260048101546080830152600581015460a08301526006810154909392839261068f929091869160c084019160ff9091169081111561066357634e487b7160e01b600052602160045260246000fd5b600281111561068257634e487b7160e01b600052602160045260246000fd5b9052506005546000611447565b60038054908601549294509092506001600160a01b039081169163da4b62cb918a91168b356106c160408e018e612466565b6040518663ffffffff1660e01b81526004016106e19594939291906121e6565b600060405180830381600087803b1580156106fb57600080fd5b505af115801561070f573d6000803e3d6000fd5b5050604080516001600160a01b038b811682526020808e0135908301528c3594508916925087917fb736540235f269d71f638ca48717b7f42aaa5982937bf1d5f0a3e7927b6a54cf910160405180910390a46003830154604080516001600160a01b03909216825260208201849052810182905284907f929f377d38460af8f995682428aca3c7136dc6e1c1ab2e211087bc163faadf579060600160405180910390a2505060018055505050505050565b600260015414156107e35760405162461bcd60e51b8152600401610342906123ea565b60026001556107f182611296565b61080d5760405162461bcd60e51b8152600401610342906123bc565b6000828152600260208190526040909120908101546001600160a01b03166108336111c0565b6001600160a01b0316146108895760405162461bcd60e51b815260206004820152601f60248201527f4f6e6c792073656c6c65722063616e2075706461746520616e206f72646572006044820152606401610342565b6000600682015460ff1660028111156108b257634e487b7160e01b600052602160045260246000fd5b146108cf5760405162461bcd60e51b815260040161034290612319565b6004810182905560405182815283907f1bb494197f9246bf49bc5e335e8a79e33601e963e980da969cd930ff418275cf9060200160405180910390a250506001805550565b6000546001600160a01b0316331461093e5760405162461bcd60e51b815260040161034290612350565b6001600160a01b03811661098d5760405162461bcd60e51b815260206004820152601660248201527510995b99599a58da585c9e481a5cc81a5b9d985b1a5960521b6044820152606401610342565b6004546001600160a01b03828116911614156109f65760405162461bcd60e51b815260206004820152602260248201527f42656e6566696369617279206973207468652073616d652061732063757272656044820152611b9d60f21b6064820152608401610342565b6004546040516001600160a01b038084169216907fdc647b6c64710ea9f8fb64dbfade0bc17c93bc5ba3e418927f5dc705540b858990600090a3600480546001600160a01b0319166001600160a01b0392909216919091179055565b6000546001600160a01b03163314610a7c5760405162461bcd60e51b815260040161034290612350565b610a8660006115f9565b565b60026001541415610aab5760405162461bcd60e51b8152600401610342906123ea565b6002600155610ab981611296565b610ad55760405162461bcd60e51b8152600401610342906123bc565b6000818152600260208190526040909120908101546001600160a01b0316610afb6111c0565b6001600160a01b031614610b515760405162461bcd60e51b815260206004820152601f60248201527f4f6e6c792073656c6c65722063616e2063616e63656c20616e206f72646572006044820152606401610342565b6000600682015460ff166002811115610b7a57634e487b7160e01b600052602160045260246000fd5b14610b975760405162461bcd60e51b815260040161034290612319565b60068101805460ff1916600190811790915581546002830154918301546040516323b872dd60e01b81526001600160a01b03928316936323b872dd93610be79330939190921691906004016121c2565b600060405180830381600087803b158015610c0157600080fd5b505af1158015610c15573d6000803e3d6000fd5b50506040518492507f30ad15c39984aa59d60d4089cbbbaa503c4c9e0fa0e3bdf62a5bab180fcb974d9150600090a2505060018055565b600060026001541415610c715760405162461bcd60e51b8152600401610342906123ea565b60026001556000610c806111c0565b9050610c8e85858584611649565b6001805595945050505050565b6000610ca682611160565b9050806001600160a01b0316610cba6111c0565b6001600160a01b031614610d105760405162461bcd60e51b815260206004820152601f60248201527f4f6e6c792073656c6c65722063616e2063616e63656c20616e206f72646572006044820152606401610342565b6003546001600160a01b03166000610d34828535602087013560608801358761123f565b9050610d3f81611296565b15610d9d5760405162461bcd60e51b815260206004820152602860248201527f4973206e6f7420706f737369626c6520746f2063616e63656c20612073746f7260448201526732b21037b93232b960c11b6064820152608401610342565b610db5828535602087013560608801358760016112b3565b50604080516001600160a01b038581168252602080880135908301528635929085169184917fb736540235f269d71f638ca48717b7f42aaa5982937bf1d5f0a3e7927b6a54cf910160405180910390a460405181907f30ad15c39984aa59d60d4089cbbbaa503c4c9e0fa0e3bdf62a5bab180fcb974d90600090a250505050565b6000546001600160a01b03163314610e605760405162461bcd60e51b815260040161034290612350565b670de0b6b3a7640000811115610e885760405162461bcd60e51b815260040161034290612385565b600654811415610eaa5760405162461bcd60e51b8152600401610342906122e2565b60065460408051918252602082018390527fbe393a35305f03781d7db6397fadeac19464e1699184c44d5665bbc4a7bdf378910160405180910390a1600655565b6000546001600160a01b03163314610f155760405162461bcd60e51b815260040161034290612350565b6001600160a01b038116610f7a5760405162461bcd60e51b815260206004820152602660248201527f4f776e61626c653a206e6577206f776e657220697320746865207a65726f206160448201526564647265737360d01b6064820152608401610342565b610f83816115f9565b50565b610f8f81611296565b610fab5760405162461bcd60e51b8152600401610342906123bc565b600081815260026020526040812090600682015460ff166002811115610fe157634e487b7160e01b600052602160045260246000fd5b14610ffe5760405162461bcd60e51b815260040161034290612319565b6110066111c0565b6003820180546001600160a01b039283166001600160a01b031990911681179091556006808401805460ff191660029081179091556040805160e081018252865486168152600187015460208201528287015490951690850152606084019290925260048401546080840152600584015460a084015260c083019190915254600754600092839261109692611447565b8454600386015460018701546040516323b872dd60e01b81529496509294506001600160a01b03918216936323b872dd936110d793309316916004016121c2565b600060405180830381600087803b1580156110f157600080fd5b505af1158015611105573d6000803e3d6000fd5b505050506003830154604080516001600160a01b03909216825260208201849052810182905284907f929f377d38460af8f995682428aca3c7136dc6e1c1ab2e211087bc163faadf579060600160405180910390a250505050565b60008061116c836117d4565b90506111b98161117f6080860186612421565b8080601f01602080910402602001604051908101604052809392919081815260200183838082843760009201919091525061187992505050565b9392505050565b60006111ca61189d565b6001600160a01b0316634f8632ba6040518163ffffffff1660e01b815260040160206040518083038186803b15801561120257600080fd5b505afa158015611216573d6000803e3d6000fd5b505050506040513d601f19601f8201168201806040525081019061123a9190612089565b905090565b604080516001600160a01b038088166020830152918101869052606081018590526080810184905290821660a082015260009060c00160405160208183030381529060405280519060200120905095945050505050565b6000908152600260205260409020546001600160a01b0316151590565b60006112c2878787878761123f565b90506112cd81611296565b156113115760405162461bcd60e51b81526020600482015260146024820152734f726465722073746f72656420616c726561647960601b6044820152606401610342565b60006040518060e00160405280896001600160a01b03168152602001888152602001856001600160a01b0316815260200160006001600160a01b0316815260200187815260200186815260200184600281111561137e57634e487b7160e01b600052602160045260246000fd5b9052600083815260026020818152604092839020845181546001600160a01b03199081166001600160a01b0392831617835592860151600180840191909155948601518285018054851691831691909117905560608601516003830180549094169116179091556080840151600482015560a0840151600582015560c0840151600682018054959650869592949193909260ff19169190849081111561143457634e487b7160e01b600052602160045260246000fd5b0217905550905050509695505050505050565b600080670de0b6b3a7640000848660800151611463919061249c565b61146d919061247c565b9150670de0b6b3a7640000838660800151611488919061249c565b611492919061247c565b90506114ee85606001518660400151838589608001516114b291906124bb565b6114bc91906124bb565b6001600160a01b037f0000000000000000000000000000000000000000000000000000000000000000169291906118f2565b606085015160045461152d916001600160a01b037f000000000000000000000000000000000000000000000000000000000000000081169216856118f2565b80156115f1576060850151600354602087015160405163589a174360e01b815260048101919091526115f192916001600160a01b03169063589a174390602401602060405180830381600087803b15801561158757600080fd5b505af115801561159b573d6000803e3d6000fd5b505050506040513d601f19601f820116820180604052508101906115bf9190612089565b6001600160a01b037f0000000000000000000000000000000000000000000000000000000000000000169190846118f2565b935093915050565b600080546001600160a01b038381166001600160a01b0319831681178455604051919092169283917f8be0079c531659141344cd1fd0a4f28419497f9722a3daafe3b4186f6b6457e09190a35050565b60006001600160a01b0385166116a15760405162461bcd60e51b815260206004820152601c60248201527f4e465420636f6e74726163742063616e206e6f74206265206e756c6c000000006044820152606401610342565b6116b0858585428660006112b3565b905060008230866040516024016116c9939291906121c2565b60408051601f198184030181529190526020810180516001600160e01b03166323b872dd60e01b17905290506116fd61189d565b6001600160a01b0316631b0f7ba9876000846040518463ffffffff1660e01b815260040161172d93929190612237565b602060405180830381600087803b15801561174757600080fd5b505af115801561175b573d6000803e3d6000fd5b505050506040513d601f19601f8201168201806040525081019061177f91906120d9565b50604080516001600160a01b0385811682526020820187905287929089169185917fb736540235f269d71f638ca48717b7f42aaa5982937bf1d5f0a3e7927b6a54cf910160405180910390a450949350505050565b60006118737f489b13c58df07ef9b20562d1466d131c2ea066f236cf3951064a8d5be73371308335602085013561180e6040870187612466565b60405161181c929190612196565b60405190819003812061185894939291606089013590602001948552602085019390935260408401919091526060830152608082015260a00190565b60405160208183030381529060405280519060200120611950565b92915050565b6000806000611888858561199e565b9150915061189581611a0e565b509392505050565b6000333b6118ed5760405162461bcd60e51b815260206004820152601960248201527f5468652063616c6c6572206973206e6f7420612070726f7879000000000000006044820152606401610342565b503390565b61194a846323b872dd60e01b858585604051602401611913939291906121c2565b60408051601f198184030181529190526020810180516001600160e01b03166001600160e01b031990931692909217909152611c0f565b50505050565b600061187361195d611ce6565b8360405161190160f01b6020820152602281018390526042810182905260009060620160405160208183030381529060405280519060200120905092915050565b6000808251604114156119d55760208301516040840151606085015160001a6119c987828585611dd9565b94509450505050611a07565b8251604014156119ff57602083015160408401516119f4868383611ec6565b935093505050611a07565b506000905060025b9250929050565b6000816004811115611a3057634e487b7160e01b600052602160045260246000fd5b1415611a395750565b6001816004811115611a5b57634e487b7160e01b600052602160045260246000fd5b1415611aa95760405162461bcd60e51b815260206004820152601860248201527f45434453413a20696e76616c6964207369676e617475726500000000000000006044820152606401610342565b6002816004811115611acb57634e487b7160e01b600052602160045260246000fd5b1415611b195760405162461bcd60e51b815260206004820152601f60248201527f45434453413a20696e76616c6964207369676e6174757265206c656e677468006044820152606401610342565b6003816004811115611b3b57634e487b7160e01b600052602160045260246000fd5b1415611b945760405162461bcd60e51b815260206004820152602260248201527f45434453413a20696e76616c6964207369676e6174757265202773272076616c604482015261756560f01b6064820152608401610342565b6004816004811115611bb657634e487b7160e01b600052602160045260246000fd5b1415610f835760405162461bcd60e51b815260206004820152602260248201527f45434453413a20696e76616c6964207369676e6174757265202776272076616c604482015261756560f01b6064820152608401610342565b6000611c64826040518060400160405280602081526020017f5361666545524332303a206c6f772d6c6576656c2063616c6c206661696c6564815250856001600160a01b0316611ef59092919063ffffffff16565b805190915015611ce15780806020019051810190611c8291906120d9565b611ce15760405162461bcd60e51b815260206004820152602a60248201527f5361666545524332303a204552433230206f7065726174696f6e20646964206e6044820152691bdd081cdd58d8d9595960b21b6064820152608401610342565b505050565b60007f0000000000000000000000000000000000000000000000000000000000000000461415611d3557507f000000000000000000000000000000000000000000000000000000000000000090565b50604080517f00000000000000000000000000000000000000000000000000000000000000006020808301919091527f0000000000000000000000000000000000000000000000000000000000000000828401527f000000000000000000000000000000000000000000000000000000000000000060608301524660808301523060a0808401919091528351808403909101815260c0909201909252805191012090565b6000807f7fffffffffffffffffffffffffffffff5d576e7357a4501ddfe92f46681b20a0831115611e105750600090506003611ebd565b8460ff16601b14158015611e2857508460ff16601c14155b15611e395750600090506004611ebd565b6040805160008082526020820180845289905260ff881692820192909252606081018690526080810185905260019060a0016020604051602081039080840390855afa158015611e8d573d6000803e3d6000fd5b5050604051601f1901519150506001600160a01b038116611eb657600060019250925050611ebd565b9150600090505b94509492505050565b6000806001600160ff1b03831660ff84901c601b01611ee787828885611dd9565b935093505050935093915050565b6060611f048484600085611f0c565b949350505050565b606082471015611f6d5760405162461bcd60e51b815260206004820152602660248201527f416464726573733a20696e73756666696369656e742062616c616e636520666f6044820152651c8818d85b1b60d21b6064820152608401610342565b843b611fbb5760405162461bcd60e51b815260206004820152601d60248201527f416464726573733a2063616c6c20746f206e6f6e2d636f6e74726163740000006044820152606401610342565b600080866001600160a01b03168587604051611fd791906121a6565b60006040518083038185875af1925050503d8060008114612014576040519150601f19603f3d011682016040523d82523d6000602084013e612019565b606091505b5091509150612029828286612034565b979650505050505050565b606083156120435750816111b9565b8251156120535782518084602001fd5b8160405162461bcd60e51b815260040161034291906122cf565b60006020828403121561207e578081fd5b81356111b98161252a565b60006020828403121561209a578081fd5b81516111b98161252a565b6000806000606084860312156120b9578182fd5b83356120c48161252a565b95602085013595506040909401359392505050565b6000602082840312156120ea578081fd5b815180151581146111b9578182fd5b60006020828403121561210a578081fd5b5035919050565b60008060408385031215612123578182fd5b50508035926020909101359150565b600060208284031215612143578081fd5b813567ffffffffffffffff811115612159578182fd5b820160a081850312156111b9578182fd5b600081518084526121828160208601602086016124d2565b601f01601f19169290920160200192915050565b8183823760009101908152919050565b600082516121b88184602087016124d2565b9190910192915050565b6001600160a01b039384168152919092166020820152604081019190915260600190565b6001600160a01b038681168252851660208201526040810184905260806060820181905281018290526000828460a084013781830160a090810191909152601f909201601f19160101949350505050565b6001600160a01b038416815260006002841061225557612255612514565b8360208301526060604083015261226f606083018461216a565b95945050505050565b6001600160a01b038881168252602082018890528681166040830152851660608201526080810184905260a0810183905260e08101600383106122bd576122bd612514565b8260c083015298975050505050505050565b6020815260006111b9602083018461216a565b6020808252601a908201527f466565206973207468652073616d652061732063757272656e74000000000000604082015260600190565b60208082526019908201527f4f7264657220737461747573206973206e6f742076616c696400000000000000604082015260600190565b6020808252818101527f4f776e61626c653a2063616c6c6572206973206e6f7420746865206f776e6572604082015260600190565b60208082526018908201527f4665652069732067726561746572207468616e20313030250000000000000000604082015260600190565b60208082526014908201527313dc99195c88191bd95cc81b9bdd08195e1a5cdd60621b604082015260600190565b6020808252601f908201527f5265656e7472616e637947756172643a207265656e7472616e742063616c6c00604082015260600190565b6000808335601e19843603018112612437578283fd5b83018035915067ffffffffffffffff821115612451578283fd5b602001915036819003821315611a0757600080fd5b6000808335601e19843603018112612437578182fd5b60008261249757634e487b7160e01b81526012600452602481fd5b500490565b60008160001904831182151516156124b6576124b66124fe565b500290565b6000828210156124cd576124cd6124fe565b500390565b60005b838110156124ed5781810151838201526020016124d5565b8381111561194a5750506000910152565b634e487b7160e01b600052601160045260246000fd5b634e487b7160e01b600052602160045260246000fd5b6001600160a01b0381168114610f8357600080fdfea26469706673582212205f0eda00112b763442cf1d8f734e265dae26580862b5ccf05fee67cbef87fee264736f6c63430008040033",
  "devdoc": {
    "kind": "dev",
    "methods": {
      "executeLazy((uint256,uint256,string,uint256,bytes))": {
        "details": "A voucher signed by the seller is used to mint the NFT, place and execute an order in the same call"
      },
      "owner()": {
        "details": "Returns the address of the current owner."
      },
      "renounceOwnership()": {
        "details": "Leaves the contract without owner. It will not be possible to call `onlyOwner` functions anymore. Can only be called by the current owner. NOTE: Renouncing ownership will leave the contract without an owner, thereby removing any functionality that is only available to the owner."
      },
      "transferOwnership(address)": {
        "details": "Transfers ownership of the contract to a new account (`newOwner`). Can only be called by the current owner."
      }
    },
    "title": "LegitArt Marketplace",
    "version": 1
  },
  "userdoc": {
    "kind": "user",
    "methods": {
      "cancelLazy((uint256,uint256,string,uint256,bytes))": {
        "notice": "Cancel an lazy-minting order"
      },
      "cancelOrder(bytes32)": {
        "notice": "Cancel a placed order"
      },
      "executeLazy((uint256,uint256,string,uint256,bytes))": {
        "notice": "Order execution by supporting lazy-minting"
      },
      "executeOrder(bytes32)": {
        "notice": "Execute a placed order"
      },
      "placeOrder(address,uint256,uint256)": {
        "notice": "Place an item for sale on the marketplace"
      }
    },
    "version": 1
  },
  "storageLayout": {
    "storage": [
      {
        "astId": 387,
        "contract": "contracts/MarketPlace.sol:MarketPlace",
        "label": "_owner",
        "offset": 0,
        "slot": "0",
        "type": "t_address"
      },
      {
        "astId": 494,
        "contract": "contracts/MarketPlace.sol:MarketPlace",
        "label": "_status",
        "offset": 0,
        "slot": "1",
        "type": "t_uint256"
      },
      {
        "astId": 4188,
        "contract": "contracts/MarketPlace.sol:MarketPlace",
        "label": "orders",
        "offset": 0,
        "slot": "2",
        "type": "t_mapping(t_bytes32,t_struct(Order)4183_storage)"
      },
      {
        "astId": 4194,
        "contract": "contracts/MarketPlace.sol:MarketPlace",
        "label": "legitArtNFT",
        "offset": 0,
        "slot": "3",
        "type": "t_contract(ILegitArtERC721)4984"
      },
      {
        "astId": 4196,
        "contract": "contracts/MarketPlace.sol:MarketPlace",
        "label": "feeBeneficiary",
        "offset": 0,
        "slot": "4",
        "type": "t_address"
      },
      {
        "astId": 4198,
        "contract": "contracts/MarketPlace.sol:MarketPlace",
        "label": "primaryFeePercentage",
        "offset": 0,
        "slot": "5",
        "type": "t_uint256"
      },
      {
        "astId": 4200,
        "contract": "contracts/MarketPlace.sol:MarketPlace",
        "label": "secondaryFeePercentage",
        "offset": 0,
        "slot": "6",
        "type": "t_uint256"
      },
      {
        "astId": 4202,
        "contract": "contracts/MarketPlace.sol:MarketPlace",
        "label": "royaltyFeePercentage",
        "offset": 0,
        "slot": "7",
        "type": "t_uint256"
      }
    ],
    "types": {
      "t_address": {
        "encoding": "inplace",
        "label": "address",
        "numberOfBytes": "20"
      },
      "t_bytes32": {
        "encoding": "inplace",
        "label": "bytes32",
        "numberOfBytes": "32"
      },
      "t_contract(ILegitArtERC721)4984": {
        "encoding": "inplace",
        "label": "contract ILegitArtERC721",
        "numberOfBytes": "20"
      },
      "t_enum(OrderStatus)4167": {
        "encoding": "inplace",
        "label": "enum MarketPlaceCore.OrderStatus",
        "numberOfBytes": "1"
      },
      "t_mapping(t_bytes32,t_struct(Order)4183_storage)": {
        "encoding": "mapping",
        "key": "t_bytes32",
        "label": "mapping(bytes32 => struct MarketPlaceCore.Order)",
        "numberOfBytes": "32",
        "value": "t_struct(Order)4183_storage"
      },
      "t_struct(Order)4183_storage": {
        "encoding": "inplace",
        "label": "struct MarketPlaceCore.Order",
        "members": [
          {
            "astId": 4169,
            "contract": "contracts/MarketPlace.sol:MarketPlace",
            "label": "nftContract",
            "offset": 0,
            "slot": "0",
            "type": "t_address"
          },
          {
            "astId": 4171,
            "contract": "contracts/MarketPlace.sol:MarketPlace",
            "label": "tokenId",
            "offset": 0,
            "slot": "1",
            "type": "t_uint256"
          },
          {
            "astId": 4173,
            "contract": "contracts/MarketPlace.sol:MarketPlace",
            "label": "seller",
            "offset": 0,
            "slot": "2",
            "type": "t_address"
          },
          {
            "astId": 4175,
            "contract": "contracts/MarketPlace.sol:MarketPlace",
            "label": "buyer",
            "offset": 0,
            "slot": "3",
            "type": "t_address"
          },
          {
            "astId": 4177,
            "contract": "contracts/MarketPlace.sol:MarketPlace",
            "label": "price",
            "offset": 0,
            "slot": "4",
            "type": "t_uint256"
          },
          {
            "astId": 4179,
            "contract": "contracts/MarketPlace.sol:MarketPlace",
            "label": "createdAt",
            "offset": 0,
            "slot": "5",
            "type": "t_uint256"
          },
          {
            "astId": 4182,
            "contract": "contracts/MarketPlace.sol:MarketPlace",
            "label": "status",
            "offset": 0,
            "slot": "6",
            "type": "t_enum(OrderStatus)4167"
          }
        ],
        "numberOfBytes": "224"
      },
      "t_uint256": {
        "encoding": "inplace",
        "label": "uint256",
        "numberOfBytes": "32"
      }
    }
  }
}